{
  "_format": "hh-sol-artifact-1",
  "contractName": "AccQueueBinary0",
  "sourceName": "contracts/trees/AccQueueBinary0.sol",
  "abi": [
    {
      "inputs": [
        {
          "internalType": "uint256",
          "name": "_subDepth",
          "type": "uint256"
        }
      ],
      "stateMutability": "nonpayable",
      "type": "constructor"
    },
    {
      "inputs": [],
      "name": "DepthCannotBeZero",
      "type": "error"
    },
    {
      "inputs": [
        {
          "internalType": "uint256",
          "name": "_depth",
          "type": "uint256"
        },
        {
          "internalType": "uint256",
          "name": "max",
          "type": "uint256"
        }
      ],
      "name": "DepthTooLarge",
      "type": "error"
    },
    {
      "inputs": [
        {
          "internalType": "uint256",
          "name": "_depth",
          "type": "uint256"
        },
        {
          "internalType": "uint256",
          "name": "min",
          "type": "uint256"
        }
      ],
      "name": "DepthTooSmall",
      "type": "error"
    },
    {
      "inputs": [],
      "name": "InvalidHashLength",
      "type": "error"
    },
    {
      "inputs": [
        {
          "internalType": "uint256",
          "name": "_index",
          "type": "uint256"
        }
      ],
      "name": "InvalidIndex",
      "type": "error"
    },
    {
      "inputs": [],
      "name": "InvalidLevel",
      "type": "error"
    },
    {
      "inputs": [],
      "name": "NothingToMerge",
      "type": "error"
    },
    {
      "inputs": [
        {
          "internalType": "address",
          "name": "owner",
          "type": "address"
        }
      ],
      "name": "OwnableInvalidOwner",
      "type": "error"
    },
    {
      "inputs": [
        {
          "internalType": "address",
          "name": "account",
          "type": "address"
        }
      ],
      "name": "OwnableUnauthorizedAccount",
      "type": "error"
    },
    {
      "inputs": [],
      "name": "SubDepthCannotBeZero",
      "type": "error"
    },
    {
      "inputs": [],
      "name": "SubTreesAlreadyMerged",
      "type": "error"
    },
    {
      "inputs": [],
      "name": "SubTreesNotMerged",
      "type": "error"
    },
    {
      "inputs": [
        {
          "internalType": "uint256",
          "name": "_subDepth",
          "type": "uint256"
        },
        {
          "internalType": "uint256",
          "name": "max",
          "type": "uint256"
        }
      ],
      "name": "SubdepthTooLarge",
      "type": "error"
    },
    {
      "anonymous": false,
      "inputs": [
        {
          "indexed": true,
          "internalType": "address",
          "name": "previousOwner",
          "type": "address"
        },
        {
          "indexed": true,
          "internalType": "address",
          "name": "newOwner",
          "type": "address"
        }
      ],
      "name": "OwnershipTransferred",
      "type": "event"
    },
    {
      "inputs": [],
      "name": "MAX_DEPTH",
      "outputs": [
        {
          "internalType": "uint256",
          "name": "",
          "type": "uint256"
        }
      ],
      "stateMutability": "view",
      "type": "function"
    },
    {
      "inputs": [],
      "name": "calcMinHeight",
      "outputs": [
        {
          "internalType": "uint256",
          "name": "depth",
          "type": "uint256"
        }
      ],
      "stateMutability": "view",
      "type": "function"
    },
    {
      "inputs": [
        {
          "internalType": "uint256",
          "name": "_leaf",
          "type": "uint256"
        }
      ],
      "name": "enqueue",
      "outputs": [
        {
          "internalType": "uint256",
          "name": "leafIndex",
          "type": "uint256"
        }
      ],
      "stateMutability": "nonpayable",
      "type": "function"
    },
    {
      "inputs": [],
      "name": "fill",
      "outputs": [],
      "stateMutability": "nonpayable",
      "type": "function"
    },
    {
      "inputs": [
        {
          "internalType": "uint256",
          "name": "_depth",
          "type": "uint256"
        }
      ],
      "name": "getMainRoot",
      "outputs": [
        {
          "internalType": "uint256",
          "name": "mainRoot",
          "type": "uint256"
        }
      ],
      "stateMutability": "view",
      "type": "function"
    },
    {
      "inputs": [],
      "name": "getSmallSRTroot",
      "outputs": [
        {
          "internalType": "uint256",
          "name": "smallSubTreeRoot",
          "type": "uint256"
        }
      ],
      "stateMutability": "view",
      "type": "function"
    },
    {
      "inputs": [],
      "name": "getSrIndices",
      "outputs": [
        {
          "internalType": "uint256",
          "name": "next",
          "type": "uint256"
        },
        {
          "internalType": "uint256",
          "name": "current",
          "type": "uint256"
        }
      ],
      "stateMutability": "view",
      "type": "function"
    },
    {
      "inputs": [
        {
          "internalType": "uint256",
          "name": "_index",
          "type": "uint256"
        }
      ],
      "name": "getSubRoot",
      "outputs": [
        {
          "internalType": "uint256",
          "name": "subRoot",
          "type": "uint256"
        }
      ],
      "stateMutability": "view",
      "type": "function"
    },
    {
      "inputs": [
        {
          "internalType": "uint256[2]",
          "name": "array",
          "type": "uint256[2]"
        }
      ],
      "name": "hash2",
      "outputs": [
        {
          "internalType": "uint256",
          "name": "result",
          "type": "uint256"
        }
      ],
      "stateMutability": "pure",
      "type": "function"
    },
    {
      "inputs": [
        {
          "internalType": "uint256[3]",
          "name": "array",
          "type": "uint256[3]"
        }
      ],
      "name": "hash3",
      "outputs": [
        {
          "internalType": "uint256",
          "name": "result",
          "type": "uint256"
        }
      ],
      "stateMutability": "pure",
      "type": "function"
    },
    {
      "inputs": [
        {
          "internalType": "uint256[4]",
          "name": "array",
          "type": "uint256[4]"
        }
      ],
      "name": "hash4",
      "outputs": [
        {
          "internalType": "uint256",
          "name": "result",
          "type": "uint256"
        }
      ],
      "stateMutability": "pure",
      "type": "function"
    },
    {
      "inputs": [
        {
          "internalType": "uint256[5]",
          "name": "array",
          "type": "uint256[5]"
        }
      ],
      "name": "hash5",
      "outputs": [
        {
          "internalType": "uint256",
          "name": "result",
          "type": "uint256"
        }
      ],
      "stateMutability": "pure",
      "type": "function"
    },
    {
      "inputs": [
        {
          "internalType": "uint256",
          "name": "left",
          "type": "uint256"
        },
        {
          "internalType": "uint256",
          "name": "right",
          "type": "uint256"
        }
      ],
      "name": "hashLeftRight",
      "outputs": [
        {
          "internalType": "uint256",
          "name": "result",
          "type": "uint256"
        }
      ],
      "stateMutability": "pure",
      "type": "function"
    },
    {
      "inputs": [
        {
          "internalType": "uint256",
          "name": "_level",
          "type": "uint256"
        },
        {
          "internalType": "uint256",
          "name": "_leaf",
          "type": "uint256"
        }
      ],
      "name": "hashLevelLeaf",
      "outputs": [
        {
          "internalType": "uint256",
          "name": "hashed",
          "type": "uint256"
        }
      ],
      "stateMutability": "view",
      "type": "function"
    },
    {
      "inputs": [
        {
          "internalType": "uint256",
          "name": "_subRoot",
          "type": "uint256"
        }
      ],
      "name": "insertSubTree",
      "outputs": [],
      "stateMutability": "nonpayable",
      "type": "function"
    },
    {
      "inputs": [
        {
          "internalType": "uint256",
          "name": "_depth",
          "type": "uint256"
        }
      ],
      "name": "merge",
      "outputs": [
        {
          "internalType": "uint256",
          "name": "root",
          "type": "uint256"
        }
      ],
      "stateMutability": "nonpayable",
      "type": "function"
    },
    {
      "inputs": [
        {
          "internalType": "uint256",
          "name": "_numSrQueueOps",
          "type": "uint256"
        }
      ],
      "name": "mergeSubRoots",
      "outputs": [],
      "stateMutability": "nonpayable",
      "type": "function"
    },
    {
      "inputs": [],
      "name": "numLeaves",
      "outputs": [
        {
          "internalType": "uint256",
          "name": "",
          "type": "uint256"
        }
      ],
      "stateMutability": "view",
      "type": "function"
    },
    {
      "inputs": [],
      "name": "owner",
      "outputs": [
        {
          "internalType": "address",
          "name": "",
          "type": "address"
        }
      ],
      "stateMutability": "view",
      "type": "function"
    },
    {
      "inputs": [],
      "name": "renounceOwnership",
      "outputs": [],
      "stateMutability": "nonpayable",
      "type": "function"
    },
    {
      "inputs": [
        {
          "internalType": "uint256[]",
          "name": "array",
          "type": "uint256[]"
        }
      ],
      "name": "sha256Hash",
      "outputs": [
        {
          "internalType": "uint256",
          "name": "result",
          "type": "uint256"
        }
      ],
      "stateMutability": "pure",
      "type": "function"
    },
    {
      "inputs": [],
      "name": "subTreesMerged",
      "outputs": [
        {
          "internalType": "bool",
          "name": "",
          "type": "bool"
        }
      ],
      "stateMutability": "view",
      "type": "function"
    },
    {
      "inputs": [
        {
          "internalType": "address",
          "name": "newOwner",
          "type": "address"
        }
      ],
      "name": "transferOwnership",
      "outputs": [],
      "stateMutability": "nonpayable",
      "type": "function"
    },
    {
      "inputs": [],
      "name": "treeMerged",
      "outputs": [
        {
          "internalType": "bool",
          "name": "",
          "type": "bool"
        }
      ],
      "stateMutability": "view",
      "type": "function"
    }
  ],
  "bytecode": "0x6101006040523480156200001257600080fd5b50604051620021213803806200212183398101604081905262000035916200060f565b8080600233806200006157604051631e4fbdf760e01b8152600060048201526024015b60405180910390fd5b6200006c81620005bf565b50816000036200008f5760405163682e504160e11b815260040160405180910390fd5b6020821115620000bd57604051637ccdcc9760e11b8152600481018390526020602482015260440162000058565b80600214158015620000d0575080600514155b15620000ef57604051636f7b6c0360e01b815260040160405180910390fd5b6002811460e052608082905260a08190526200010c82826200073e565b60c052505060006101725550507f2098f5fb9e239eab3ceac3f27b81e481dc3124d55ffed523a839ee8446b64864610173557f1069673dcdb12263df301a6ff584a7ec261a44cb9dc68df067a4774460b1f1e1610174557f18f43331537ee2af2e3d758d50f72106467c6eea50371dd528d57eb2b856d238610175557f07f9d837cb17b0d36320ffe93ba52345f1b728571a568265caac97559dbc952a610176557f2b94cf5e8746b3f5c9631f4c5df32907a699c58c94b2ad4d7b5cec1639183f55610177557f2dee93c5a666459646ea7d22cca9e1bcfed71e6951b953611d11dda32ea09d78610178557f078295e5a22b84e982cf601eb639597b8b0515a88cb5ac7fa8a4aabe3c87349d610179557f2fa5e5f18f6027a6501bec864564472a616b2e274a41211a444cbe3a99f3cc6161017a557f0e884376d0d8fd21ecb780389e941f66e45e7acce3e228ab3e2156a614fcd74761017b557f1b7201da72494f1e28717ad1a52eb469f95892f957713533de6175e5da190af261017c557f1f8d8822725e36385200c0b201249819a6e6e1e4650808b5bebc6bface7d763661017d557f2c5d82f66c914bafb9701589ba8cfcfb6162b0a12acf88a8d0879a0471b5f85a61017e557f14c54148a0940bb820957f5adf3fa1134ef5c4aaa113f4646458f270e0bfbfd061017f557f190d33b12f986f961e10c0ee44d8b9af11be25588cad89d416118e4bf4ebe80c610180557f22f98aa9ce704152ac17354914ad73ed1167ae6596af510aa5b3649325e06c92610181557f2a7c7c9b6ce5880b9f6f228d72bf6a575a526f29c66ecceef8b753d38bba7323610182557f2e8186e558698ec1c67af9c14d463ffc470043c9c2988b954d75dd643f36b992610183557f0f57c5571e9a4eab49e2c8cf050dae948aef6ead647392273546249d1c1ff10f610184557f1830ee67b5fb554ad5f63d4388800e1cfe78e310697d46e43c9ce36134f72cca610185557f2134e76ac5d21aab186c2be1dd8f84ee880a1e46eaf712f9d371b6df22191f3e610186557f19df90ec844ebc4ffeebd866f33859b0c051d8c958ee3aa88f8f8df3db91a5b1610187557f18cca2a66b5c0787981e69aefd84852d74af0e93ef4912b4648c05f722efe52b610188557f2388909415230d1b4d1304d2d54f473a628338f2efad83fadf05644549d2538d610189557f27171fb4a97b6cc0e9e8f543b5294de866a2af2c9c8d0b1d96e673e4529ed54061018a557f2ff6650540f629fd5711a0bc74fc0d28dcb230b9392583e5f8d59696dde6ae2161018b557f120c58f143d491e95902f7f5277778a2e0ad5168f6add75669932630ce61151861018c557f1f21feb70d3f21b07bf853d5e5db03071ec495a0a565a21da2d665d27948379561018d557f24be905fa71335e14c638cc0f66a8623a826e768068a9e968bb1a1dde18a72d261018e557f0f8666b62ed17491c50ceadead57d4cd597ef3821d65c328744c74e553dac26d61018f557f0918d46bf52d98b034413f4a1a1c41594e7a7a3f6ae08cb43d1a2a230e1959ef610190557f1bbeb01b4c479ecde76917645e404dfa2e26f90d0afc5a65128513ad375c5ff2610191557f2f68a1c58e257e42a17a6c61dff5551ed560b9922ab119d5ac8e184c9734ead96101925562000753565b600080546001600160a01b038381166001600160a01b0319831681178455604051919092169283917f8be0079c531659141344cd1fd0a4f28419497f9722a3daafe3b4186f6b6457e09190a35050565b6000602082840312156200062257600080fd5b5051919050565b634e487b7160e01b600052601160045260246000fd5b600181815b808511156200068057816000190482111562000664576200066462000629565b808516156200067257918102915b93841c939080029062000644565b509250929050565b600082620006995750600162000738565b81620006a85750600062000738565b8160018114620006c15760028114620006cc57620006ec565b600191505062000738565b60ff841115620006e057620006e062000629565b50506001821b62000738565b5060208310610133831016604e8410600b841016171562000711575081810a62000738565b6200071d83836200063f565b806000190482111562000734576200073462000629565b0290505b92915050565b60006200074c838362000688565b9392505050565b60805160a05160c05160e0516119166200080b6000396000818161062f015261105b0152600081816103ea015281816109c301528181610a6001528181610c1d0152610d200152600081816103230152818161056e015281816106f701528181610b5201528181610e610152610fd501526000818161041a0152818161047b0152818161054401528181610b8b01528181610c5601528181610ca001528181610e0201528181610eb8015261118601526119166000f3fe608060405234801561001057600080fd5b50600436106101585760003560e01c806381d6a24a116100c3578063c00bdbcc1161007c578063c00bdbcc146102b8578063c15da65b146102cb578063d9c55ce1146102de578063dda89a6e146102e6578063e93fb4d4146102f0578063f2fde38b1461030357600080fd5b806381d6a24a146102455780638da5cb5b146102615780639cfced971461027c578063a27154ba1461028f578063b6a64acd14610297578063bea140b3146102a557600080fd5b806358bfc3791161011557806358bfc379146101cc5780635bb93995146101df5780635bf1fa4d146101f257806362a361bb1461020557806369e7c58614610218578063715018a61461023b57600080fd5b80631b9b8aa71461015d5780631ffc735d1461018357806324a47aeb146101965780633bfa6fce146101a95780633dfb88b2146101b15780633e1a8cc1146101c4575b600080fd5b61017061016b36600461132a565b610316565b6040519081526020015b60405180910390f35b61017061019136600461132a565b610399565b6101706101a436600461132a565b6104c7565b6101706106eb565b6101706101bf36600461138a565b610736565b6101706107b7565b6101706101da366004611408565b6107e6565b6101706101ed3660046114ae565b610880565b6101706102003660046114ae565b6108a5565b6101706102133660046114d0565b6108cf565b61016e5461022b90610100900460ff1681565b604051901515815260200161017a565b610243610909565b005b610170546001546040805192835260208301919091520161017a565b6000546040516001600160a01b03909116815260200161017a565b61017061028a36600461152b565b61091d565b610170602081565b61016e5461022b9060ff1681565b6101706102b3366004611584565b610957565b6102436102c636600461132a565b610991565b6102436102d936600461132a565b610a0d565b610243610c13565b6101706101715481565b6101706102fe36600461132a565b610d5d565b6102436103113660046115dd565b610d98565b61017154600090610347837f0000000000000000000000000000000000000000000000000000000000000000611700565b101561037d5761017154604051627289df60e61b8152610374918491600401918252602082015260400190565b60405180910390fd5b61014d82602181106103915761039161170c565b015492915050565b60006103a3610dd3565b50610171546103b3826000610e00565b6103be816001611722565b610171556103cf61014d600061128f565b600061016f5561016e805460ff191690556101715461040f907f000000000000000000000000000000000000000000000000000000000000000090611735565b6000036104c25760027f0000000000000000000000000000000000000000000000000000000000000000602181106104495761044961170c565b600402015460018054600090815261014c602052604081209290925580549161047183611757565b90915550600290507f0000000000000000000000000000000000000000000000000000000000000000602181106104aa576104aa61170c565b6004020160008091018190556104c29060869061128f565b919050565b60006104d1610dd3565b816000036104f257604051630543d40760e11b815260040160405180910390fd5b61016e5460ff1661051657604051631e596e4360e11b815260040160405180910390fd5b602082111561054257604051632cd31ae960e01b81526004810183905260206024820152604401610374565b7f00000000000000000000000000000000000000000000000000000000000000005b61017154610592827f0000000000000000000000000000000000000000000000000000000000000000611700565b10156105aa57806105a281611757565b915050610564565b808310156105d457604051627289df60e61b81526004810184905260248101829052604401610374565b8083036106105761016f5461014d84602181106105f3576105f361170c565b0155505061016e805461ff00191661010017905561016f54919050565b61016f549150805b838110156106bd57600061062b82610f41565b90507f0000000000000000000000000000000000000000000000000000000000000000156106765761065b61129e565b8481526020810182905261066e816108cf565b9450506106aa565b61067e6112bc565b848152602081018290526040810182905260608101829052608081018290526106a68161091d565b9450505b50806106b581611757565b915050610618565b508161014d84602181106106d3576106d361170c565b015561016e805461ff00191661010017905550919050565b60015b60015461071b827f0000000000000000000000000000000000000000000000000000000000000000611700565b1015610733578061072b81611757565b9150506106ee565b90565b60405163248f667760e01b815260009073__$ce9c2c925f157047e54fa833ec4e61409f$__9063248f667790610770908590600401611770565b602060405180830381865af415801561078d573d6000803e3d6000fd5b505050506040513d601f19601f820116820180604052508101906107b191906117a1565b92915050565b61016e5460009060ff166107de57604051631e596e4360e11b815260040160405180910390fd5b5061016f5490565b60007f30644e72e131a029b85045b68181585d2833e84879b9709143e1f593f000000160028360405160200161081c91906117ba565b60408051601f1981840301815290829052610836916117f0565b602060405180830381855afa158015610853573d6000803e3d6000fd5b5050506040513d601f19601f8201168201806040525081019061087691906117a1565b6107b19190611735565b600061088a61129e565b8381526020810183905261089d816108cf565b949350505050565b60006108c8600284602181106108bd576108bd61170c565b600402015483610880565b9392505050565b6040516314d2f97b60e11b815260009073__$6574937f64fc1d7710ec0e28b7a36713bb$__906329a5f2f69061077090859060040161181f565b610911610dd3565b61091b6000610f57565b565b604051630926f44b60e31b815260009073__$20527677031d76601747626a9845039fe4$__90634937a25890610770908590600401611847565b6040516304b98e1d60e31b815260009073__$dc01a9744591ab014bc46a3b7671cdaefb$__906325cc70e89061077090859060040161186f565b610999610dd3565b60018054600090815261014c60205260408120839055815491906109bc83611757565b91905055507f000000000000000000000000000000000000000000000000000000000000000061017160008282546109f49190611722565b9091555050600061016f555061016e805460ff19169055565b610a15610dd3565b61016e5460ff1615610a3a57604051630d36aec160e01b815260040160405180910390fd5b61017154600003610a5e576040516316a0341160e11b815260040160405180910390fd5b7f000000000000000000000000000000000000000000000000000000000000000061017154610a8d9190611735565b15610a9a57610a9a610c13565b600154600103610ac357610aae6000610d5d565b61016f5561016e805460ff1916600117905550565b6000610acd6106eb565b610170549091506000905b600154811015610b49578315801590610af057508382145b15610afb5750505050565b610b12610b0a61017054610d5d565b600085610fa7565b6101708054906000610b2383611757565b91905055508180610b3390611757565b9250508080610b4190611757565b915050610ad8565b506000610b76837f0000000000000000000000000000000000000000000000000000000000000000611700565b90506001546101705403610bdf576000610baf7f0000000000000000000000000000000000000000000000000000000000000000610f41565b6001549091505b82811015610bdc57610bca82600087610fa7565b80610bd481611757565b915050610bb6565b50505b60a78360218110610bf257610bf261170c565b600402016000015461016f55505061016e805460ff19166001179055505b50565b610c1b610dd3565b7f000000000000000000000000000000000000000000000000000000000000000061017154610c4a9190611735565b600003610c9257610c7a7f0000000000000000000000000000000000000000000000000000000000000000610f41565b600154600090815261014c6020526040902055610d03565b610c9c6000611184565b60027f000000000000000000000000000000000000000000000000000000000000000060218110610ccf57610ccf61170c565b6004020154600154600090815261014c6020526040812091909155610cf6906002906112da565b610d0361014d600061128f565b60006001546001610d149190611722565b60018190559050610d457f000000000000000000000000000000000000000000000000000000000000000082611897565b6101715550600061016f5561016e805460ff19169055565b60008160015411610d845760405163042a2e7160e11b815260048101839052602401610374565b50600090815261014c602052604090205490565b610da0610dd3565b6001600160a01b038116610dca57604051631e4fbdf760e01b815260006004820152602401610374565b610c1081610f57565b6000546001600160a01b0316331461091b5760405163118cdaa760e01b8152336004820152602401610374565b7f0000000000000000000000000000000000000000000000000000000000000000811115610e415760405163d1459f7960e01b815260040160405180910390fd5b600060868260218110610e5657610e5661170c565b01549050610e8560017f00000000000000000000000000000000000000000000000000000000000000006118ae565b8114610f0a578260028360218110610e9f57610e9f61170c565b600402018260048110610eb457610eb461170c565b01557f00000000000000000000000000000000000000000000000000000000000000008214610f055760868260218110610ef057610ef061170c565b018054906000610eff83611757565b91905055505b505050565b610f148284611251565b925060868260218110610f2957610f2961170c565b600091015581610f3881611757565b92505050610e41565b600061017282602181106103915761039161170c565b600080546001600160a01b038381166001600160a01b0319831681178455604051919092169283917f8be0079c531659141344cd1fd0a4f28419497f9722a3daafe3b4186f6b6457e09190a35050565b80821115610fb457505050565b600061012b8360218110610fca57610fca61170c565b01549050610ff960017f00000000000000000000000000000000000000000000000000000000000000006118ae565b8114611057578360a784602181106110135761101361170c565b6004020182600481106110285761102861170c565b015561012b836021811061103e5761103e61170c565b01805490600061104d83611757565b919050555061117e565b60007f0000000000000000000000000000000000000000000000000000000000000000156110b95761108761129e565b60a7856021811061109a5761109a61170c565b60040201548152602081018690526110b1816108cf565b91505061114e565b6110c16112bc565b60005b838160ff1610156111285760a786602181106110e2576110e261170c565b600402018160ff16600481106110fa576110fa61170c565b0154828260ff16600581106111115761111161170c565b602002015280611120816118c1565b9150506110c4565b508581846005811061113c5761113c61170c565b602002015261114a8161091d565b9150505b61012b84602181106111625761116261170c565b600091015561117c81611176866001611722565b85610fa7565b505b50505050565b7f0000000000000000000000000000000000000000000000000000000000000000811015610c10576000608682602181106111c1576111c161170c565b0154905080156112265760006111d561129e565b60006111e085610f41565b9050600285602181106111f5576111f561170c565b600402015482526020820181905261120c826108cf565b92506112228361121d876001611722565b610e00565b5050505b608682602181106112395761123961170c565b60009101558161124881611757565b92505050611184565b6000611269600284602181106108bd576108bd61170c565b90506002836021811061127e5761127e61170c565b600402016000016000905592915050565b50610c109060218101906112e9565b60405180604001604052806002906020820280368337509192915050565b6040518060a001604052806005906020820280368337509192915050565b50610c10906084810190611302565b5b808211156112fe57600081556001016112ea565b5090565b808211156112fe57600080825560018201819055600282018190556003820155600401611302565b60006020828403121561133c57600080fd5b5035919050565b634e487b7160e01b600052604160045260246000fd5b604051601f8201601f1916810167ffffffffffffffff8111828210171561138257611382611343565b604052919050565b60006080828403121561139c57600080fd5b82601f8301126113ab57600080fd5b6040516080810181811067ffffffffffffffff821117156113ce576113ce611343565b6040528060808401858111156113e357600080fd5b845b818110156113fd5780358352602092830192016113e5565b509195945050505050565b6000602080838503121561141b57600080fd5b823567ffffffffffffffff8082111561143357600080fd5b818501915085601f83011261144757600080fd5b81358181111561145957611459611343565b8060051b915061146a848301611359565b818152918301840191848101908884111561148457600080fd5b938501935b838510156114a257843582529385019390850190611489565b98975050505050505050565b600080604083850312156114c157600080fd5b50508035926020909101359150565b6000604082840312156114e257600080fd5b82601f8301126114f157600080fd5b6040516040810181811067ffffffffffffffff8211171561151457611514611343565b80604052508060408401858111156113e357600080fd5b600060a0828403121561153d57600080fd5b82601f83011261154c57600080fd5b60405160a0810181811067ffffffffffffffff8211171561156f5761156f611343565b6040528060a08401858111156113e357600080fd5b60006060828403121561159657600080fd5b82601f8301126115a557600080fd5b6040516060810181811067ffffffffffffffff821117156115c8576115c8611343565b6040528060608401858111156113e357600080fd5b6000602082840312156115ef57600080fd5b81356001600160a01b03811681146108c857600080fd5b634e487b7160e01b600052601160045260246000fd5b600181815b8085111561165757816000190482111561163d5761163d611606565b8085161561164a57918102915b93841c9390800290611621565b509250929050565b60008261166e575060016107b1565b8161167b575060006107b1565b8160018114611691576002811461169b576116b7565b60019150506107b1565b60ff8411156116ac576116ac611606565b50506001821b6107b1565b5060208310610133831016604e8410600b84101617156116da575081810a6107b1565b6116e4838361161c565b80600019048211156116f8576116f8611606565b029392505050565b60006108c8838361165f565b634e487b7160e01b600052603260045260246000fd5b808201808211156107b1576107b1611606565b60008261175257634e487b7160e01b600052601260045260246000fd5b500690565b60006001820161176957611769611606565b5060010190565b60808101818360005b6004811015611798578151835260209283019290910190600101611779565b50505092915050565b6000602082840312156117b357600080fd5b5051919050565b815160009082906020808601845b838110156117e4578151855293820193908201906001016117c8565b50929695505050505050565b6000825160005b8181101561181157602081860181015185830152016117f7565b506000920191825250919050565b60408101818360005b6002811015611798578151835260209283019290910190600101611828565b60a08101818360005b6005811015611798578151835260209283019290910190600101611850565b60608101818360005b6003811015611798578151835260209283019290910190600101611878565b80820281158282048414176107b1576107b1611606565b818103818111156107b1576107b1611606565b600060ff821660ff81036118d7576118d7611606565b6001019291505056fea2646970667358221220007383a0c408fba07b61a7e3bb45592fa226543d505f088b23692d72e1c9d69d64736f6c63430008140033",
  "linkReferences": {
    "contracts/crypto/PoseidonT3.sol": {
      "PoseidonT3": [
        {
          "length": 20,
          "start": 4332
        }
      ]
    },
    "contracts/crypto/PoseidonT4.sol": {
      "PoseidonT4": [
        {
          "length": 20,
          "start": 4468
        }
      ]
    },
    "contracts/crypto/PoseidonT5.sol": {
      "PoseidonT5": [
        {
          "length": 20,
          "start": 3923
        }
      ]
    },
    "contracts/crypto/PoseidonT6.sol": {
      "PoseidonT6": [
        {
          "length": 20,
          "start": 4410
        }
      ]
    }
  },
  "deployedLinkReferences": {
    "contracts/crypto/PoseidonT3.sol": {
      "PoseidonT3": [
        {
          "length": 20,
          "start": 2273
        }
      ]
    },
    "contracts/crypto/PoseidonT4.sol": {
      "PoseidonT4": [
        {
          "length": 20,
          "start": 2409
        }
      ]
    },
    "contracts/crypto/PoseidonT5.sol": {
      "PoseidonT5": [
        {
          "length": 20,
          "start": 1864
        }
      ]
    },
    "contracts/crypto/PoseidonT6.sol": {
      "PoseidonT6": [
        {
          "length": 20,
          "start": 2351
        }
      ]
    }
  }
}