{
  "_format": "hh-sol-artifact-1",
  "contractName": "MerkleProofGatekeeper",
  "sourceName": "contracts/gatekeepers/MerkleProofGatekeeper.sol",
  "abi": [
    {
      "inputs": [
        {
          "internalType": "bytes32",
          "name": "_root",
          "type": "bytes32"
        }
      ],
      "stateMutability": "payable",
      "type": "constructor"
    },
    {
      "inputs": [],
      "name": "AlreadyRegistered",
      "type": "error"
    },
    {
      "inputs": [],
      "name": "InvalidProof",
      "type": "error"
    },
    {
      "inputs": [],
      "name": "InvalidRoot",
      "type": "error"
    },
    {
      "inputs": [],
      "name": "OnlyMACI",
      "type": "error"
    },
    {
      "inputs": [
        {
          "internalType": "address",
          "name": "owner",
          "type": "address"
        }
      ],
      "name": "OwnableInvalidOwner",
      "type": "error"
    },
    {
      "inputs": [
        {
          "internalType": "address",
          "name": "account",
          "type": "address"
        }
      ],
      "name": "OwnableUnauthorizedAccount",
      "type": "error"
    },
    {
      "inputs": [],
      "name": "ZeroAddress",
      "type": "error"
    },
    {
      "anonymous": false,
      "inputs": [
        {
          "indexed": true,
          "internalType": "address",
          "name": "previousOwner",
          "type": "address"
        },
        {
          "indexed": true,
          "internalType": "address",
          "name": "newOwner",
          "type": "address"
        }
      ],
      "name": "OwnershipTransferred",
      "type": "event"
    },
    {
      "inputs": [],
      "name": "getTrait",
      "outputs": [
        {
          "internalType": "string",
          "name": "",
          "type": "string"
        }
      ],
      "stateMutability": "pure",
      "type": "function"
    },
    {
      "inputs": [],
      "name": "maci",
      "outputs": [
        {
          "internalType": "address",
          "name": "",
          "type": "address"
        }
      ],
      "stateMutability": "view",
      "type": "function"
    },
    {
      "inputs": [],
      "name": "owner",
      "outputs": [
        {
          "internalType": "address",
          "name": "",
          "type": "address"
        }
      ],
      "stateMutability": "view",
      "type": "function"
    },
    {
      "inputs": [
        {
          "internalType": "address",
          "name": "_user",
          "type": "address"
        },
        {
          "internalType": "bytes",
          "name": "_data",
          "type": "bytes"
        }
      ],
      "name": "register",
      "outputs": [],
      "stateMutability": "nonpayable",
      "type": "function"
    },
    {
      "inputs": [
        {
          "internalType": "address",
          "name": "",
          "type": "address"
        }
      ],
      "name": "registeredAddresses",
      "outputs": [
        {
          "internalType": "bool",
          "name": "",
          "type": "bool"
        }
      ],
      "stateMutability": "view",
      "type": "function"
    },
    {
      "inputs": [],
      "name": "renounceOwnership",
      "outputs": [],
      "stateMutability": "nonpayable",
      "type": "function"
    },
    {
      "inputs": [],
      "name": "root",
      "outputs": [
        {
          "internalType": "bytes32",
          "name": "",
          "type": "bytes32"
        }
      ],
      "stateMutability": "view",
      "type": "function"
    },
    {
      "inputs": [
        {
          "internalType": "address",
          "name": "_maci",
          "type": "address"
        }
      ],
      "name": "setMaciInstance",
      "outputs": [],
      "stateMutability": "nonpayable",
      "type": "function"
    },
    {
      "inputs": [
        {
          "internalType": "address",
          "name": "newOwner",
          "type": "address"
        }
      ],
      "name": "transferOwnership",
      "outputs": [],
      "stateMutability": "nonpayable",
      "type": "function"
    }
  ],
  "bytecode": "0x60a060405260405161082c38038061082c833981016040819052610022916100c8565b338061004857604051631e4fbdf760e01b81526000600482015260240160405180910390fd5b61005181610078565b50806100705760405163504570e360e01b815260040160405180910390fd5b6080526100e1565b600080546001600160a01b038381166001600160a01b0319831681178455604051919092169283917f8be0079c531659141344cd1fd0a4f28419497f9722a3daafe3b4186f6b6457e09190a35050565b6000602082840312156100da57600080fd5b5051919050565b6080516107296101036000396000818161016e01526102ed01526107296000f3fe608060405234801561001057600080fd5b50600436106100935760003560e01c806376b22eac1161006657806376b22eac146100f85780638da5cb5b1461012b578063cea9a2631461013c578063ebf0c71714610169578063f2fde38b1461019e57600080fd5b806313e65cf31461009857806324b8fbf6146100ad57806334a0922c146100c0578063715018a6146100f0575b600080fd5b6100ab6100a63660046104ba565b6101b1565b005b6100ab6100bb36600461051c565b610202565b6001546100d3906001600160a01b031681565b6040516001600160a01b0390911681526020015b60405180910390f35b6100ab610335565b61011b6101063660046104ba565b60026020526000908152604090205460ff1681565b60405190151581526020016100e7565b6000546001600160a01b03166100d3565b604080518082018252600b81526a26b2b935b632a83937b7b360a91b602082015290516100e791906105c2565b6101907f000000000000000000000000000000000000000000000000000000000000000081565b6040519081526020016100e7565b6100ab6101ac3660046104ba565b610349565b6101b961038c565b6001600160a01b0381166101e05760405163d92e233d60e01b815260040160405180910390fd5b600180546001600160a01b0319166001600160a01b0392909216919091179055565b6001546001600160a01b0316331461022d57604051630346d90560e21b815260040160405180910390fd5b6000818060200190518101906102439190610610565b6001600160a01b03841660009081526002602052604090205490915060ff161561028057604051630ea075bf60e21b815260040160405180910390fd5b6001600160a01b0383166000818152600260209081526040808320805460ff1916600117905580519182019390935290910160408051601f1981840301815282825280516020918201209083015201604051602081830303815290604052805190602001209050610312827f0000000000000000000000000000000000000000000000000000000000000000836103b9565b61032f576040516309bde33960e01b815260040160405180910390fd5b50505050565b61033d61038c565b61034760006103cf565b565b61035161038c565b6001600160a01b03811661038057604051631e4fbdf760e01b8152600060048201526024015b60405180910390fd5b610389816103cf565b50565b6000546001600160a01b031633146103475760405163118cdaa760e01b8152336004820152602401610377565b6000826103c6858461041f565b14949350505050565b600080546001600160a01b038381166001600160a01b0319831681178455604051919092169283917f8be0079c531659141344cd1fd0a4f28419497f9722a3daafe3b4186f6b6457e09190a35050565b600081815b84518110156104645761045082868381518110610443576104436106b6565b602002602001015161046c565b91508061045c816106cc565b915050610424565b509392505050565b6000818310610488576000828152602084905260409020610497565b60008381526020839052604090205b9392505050565b80356001600160a01b03811681146104b557600080fd5b919050565b6000602082840312156104cc57600080fd5b6104978261049e565b634e487b7160e01b600052604160045260246000fd5b604051601f8201601f1916810167ffffffffffffffff81118282101715610514576105146104d5565b604052919050565b6000806040838503121561052f57600080fd5b6105388361049e565b915060208084013567ffffffffffffffff8082111561055657600080fd5b818601915086601f83011261056a57600080fd5b81358181111561057c5761057c6104d5565b61058e601f8201601f191685016104eb565b915080825287848285010111156105a457600080fd5b80848401858401376000848284010152508093505050509250929050565b600060208083528351808285015260005b818110156105ef578581018301518582016040015282016105d3565b506000604082860101526040601f19601f8301168501019250505092915050565b6000602080838503121561062357600080fd5b825167ffffffffffffffff8082111561063b57600080fd5b818501915085601f83011261064f57600080fd5b815181811115610661576106616104d5565b8060051b91506106728483016104eb565b818152918301840191848101908884111561068c57600080fd5b938501935b838510156106aa57845182529385019390850190610691565b98975050505050505050565b634e487b7160e01b600052603260045260246000fd5b6000600182016106ec57634e487b7160e01b600052601160045260246000fd5b506001019056fea264697066735822122012da71705309d1c69db99b2855cd0808208feb11e47cdc21c376cf9bc38d0d8264736f6c63430008140033",
  "linkReferences": {},
  "deployedLinkReferences": {}
}