{
  "_format": "hh-sol-artifact-1",
  "contractName": "Poll",
  "sourceName": "contracts/Poll.sol",
  "abi": [
    {
      "inputs": [
        {
          "internalType": "uint256",
          "name": "_duration",
          "type": "uint256"
        },
        {
          "components": [
            {
              "internalType": "uint8",
              "name": "intStateTreeDepth",
              "type": "uint8"
            },
            {
              "internalType": "uint8",
              "name": "messageTreeSubDepth",
              "type": "uint8"
            },
            {
              "internalType": "uint8",
              "name": "messageTreeDepth",
              "type": "uint8"
            },
            {
              "internalType": "uint8",
              "name": "voteOptionTreeDepth",
              "type": "uint8"
            }
          ],
          "internalType": "struct Params.TreeDepths",
          "name": "_treeDepths",
          "type": "tuple"
        },
        {
          "components": [
            {
              "internalType": "uint256",
              "name": "x",
              "type": "uint256"
            },
            {
              "internalType": "uint256",
              "name": "y",
              "type": "uint256"
            }
          ],
          "internalType": "struct DomainObjs.PubKey",
          "name": "_coordinatorPubKey",
          "type": "tuple"
        },
        {
          "components": [
            {
              "internalType": "contract IMACI",
              "name": "maci",
              "type": "address"
            },
            {
              "internalType": "contract AccQueue",
              "name": "messageAq",
              "type": "address"
            }
          ],
          "internalType": "struct Params.ExtContracts",
          "name": "_extContracts",
          "type": "tuple"
        },
        {
          "internalType": "uint256",
          "name": "_emptyBallotRoot",
          "type": "uint256"
        }
      ],
      "stateMutability": "payable",
      "type": "constructor"
    },
    {
      "inputs": [],
      "name": "InvalidBatchLength",
      "type": "error"
    },
    {
      "inputs": [],
      "name": "InvalidMessage",
      "type": "error"
    },
    {
      "inputs": [],
      "name": "InvalidPubKey",
      "type": "error"
    },
    {
      "inputs": [],
      "name": "PollAlreadyInit",
      "type": "error"
    },
    {
      "inputs": [],
      "name": "StateAlreadyMerged",
      "type": "error"
    },
    {
      "inputs": [],
      "name": "TooManyMessages",
      "type": "error"
    },
    {
      "inputs": [],
      "name": "VotingPeriodNotOver",
      "type": "error"
    },
    {
      "inputs": [],
      "name": "VotingPeriodOver",
      "type": "error"
    },
    {
      "anonymous": false,
      "inputs": [
        {
          "indexed": true,
          "internalType": "uint256",
          "name": "_stateRoot",
          "type": "uint256"
        },
        {
          "indexed": true,
          "internalType": "uint256",
          "name": "_numSignups",
          "type": "uint256"
        }
      ],
      "name": "MergeMaciState",
      "type": "event"
    },
    {
      "anonymous": false,
      "inputs": [
        {
          "indexed": true,
          "internalType": "uint256",
          "name": "_messageRoot",
          "type": "uint256"
        }
      ],
      "name": "MergeMessageAq",
      "type": "event"
    },
    {
      "anonymous": false,
      "inputs": [
        {
          "indexed": true,
          "internalType": "uint256",
          "name": "_numSrQueueOps",
          "type": "uint256"
        }
      ],
      "name": "MergeMessageAqSubRoots",
      "type": "event"
    },
    {
      "anonymous": false,
      "inputs": [
        {
          "components": [
            {
              "internalType": "uint256[10]",
              "name": "data",
              "type": "uint256[10]"
            }
          ],
          "indexed": false,
          "internalType": "struct DomainObjs.Message",
          "name": "_message",
          "type": "tuple"
        },
        {
          "components": [
            {
              "internalType": "uint256",
              "name": "x",
              "type": "uint256"
            },
            {
              "internalType": "uint256",
              "name": "y",
              "type": "uint256"
            }
          ],
          "indexed": false,
          "internalType": "struct DomainObjs.PubKey",
          "name": "_encPubKey",
          "type": "tuple"
        }
      ],
      "name": "PublishMessage",
      "type": "event"
    },
    {
      "inputs": [],
      "name": "MESSAGE_DATA_LENGTH",
      "outputs": [
        {
          "internalType": "uint8",
          "name": "",
          "type": "uint8"
        }
      ],
      "stateMutability": "view",
      "type": "function"
    },
    {
      "inputs": [],
      "name": "actualStateTreeDepth",
      "outputs": [
        {
          "internalType": "uint8",
          "name": "",
          "type": "uint8"
        }
      ],
      "stateMutability": "view",
      "type": "function"
    },
    {
      "inputs": [],
      "name": "coordinatorPubKey",
      "outputs": [
        {
          "internalType": "uint256",
          "name": "x",
          "type": "uint256"
        },
        {
          "internalType": "uint256",
          "name": "y",
          "type": "uint256"
        }
      ],
      "stateMutability": "view",
      "type": "function"
    },
    {
      "inputs": [],
      "name": "coordinatorPubKeyHash",
      "outputs": [
        {
          "internalType": "uint256",
          "name": "",
          "type": "uint256"
        }
      ],
      "stateMutability": "view",
      "type": "function"
    },
    {
      "inputs": [],
      "name": "currentSbCommitment",
      "outputs": [
        {
          "internalType": "uint256",
          "name": "",
          "type": "uint256"
        }
      ],
      "stateMutability": "view",
      "type": "function"
    },
    {
      "inputs": [],
      "name": "emptyBallotRoot",
      "outputs": [
        {
          "internalType": "uint256",
          "name": "",
          "type": "uint256"
        }
      ],
      "stateMutability": "view",
      "type": "function"
    },
    {
      "inputs": [],
      "name": "extContracts",
      "outputs": [
        {
          "internalType": "contract IMACI",
          "name": "maci",
          "type": "address"
        },
        {
          "internalType": "contract AccQueue",
          "name": "messageAq",
          "type": "address"
        }
      ],
      "stateMutability": "view",
      "type": "function"
    },
    {
      "inputs": [],
      "name": "getDeployTimeAndDuration",
      "outputs": [
        {
          "internalType": "uint256",
          "name": "pollDeployTime",
          "type": "uint256"
        },
        {
          "internalType": "uint256",
          "name": "pollDuration",
          "type": "uint256"
        }
      ],
      "stateMutability": "view",
      "type": "function"
    },
    {
      "inputs": [
        {
          "internalType": "uint256[2]",
          "name": "array",
          "type": "uint256[2]"
        }
      ],
      "name": "hash2",
      "outputs": [
        {
          "internalType": "uint256",
          "name": "result",
          "type": "uint256"
        }
      ],
      "stateMutability": "pure",
      "type": "function"
    },
    {
      "inputs": [
        {
          "internalType": "uint256[3]",
          "name": "array",
          "type": "uint256[3]"
        }
      ],
      "name": "hash3",
      "outputs": [
        {
          "internalType": "uint256",
          "name": "result",
          "type": "uint256"
        }
      ],
      "stateMutability": "pure",
      "type": "function"
    },
    {
      "inputs": [
        {
          "internalType": "uint256[4]",
          "name": "array",
          "type": "uint256[4]"
        }
      ],
      "name": "hash4",
      "outputs": [
        {
          "internalType": "uint256",
          "name": "result",
          "type": "uint256"
        }
      ],
      "stateMutability": "pure",
      "type": "function"
    },
    {
      "inputs": [
        {
          "internalType": "uint256[5]",
          "name": "array",
          "type": "uint256[5]"
        }
      ],
      "name": "hash5",
      "outputs": [
        {
          "internalType": "uint256",
          "name": "result",
          "type": "uint256"
        }
      ],
      "stateMutability": "pure",
      "type": "function"
    },
    {
      "inputs": [
        {
          "internalType": "uint256",
          "name": "left",
          "type": "uint256"
        },
        {
          "internalType": "uint256",
          "name": "right",
          "type": "uint256"
        }
      ],
      "name": "hashLeftRight",
      "outputs": [
        {
          "internalType": "uint256",
          "name": "result",
          "type": "uint256"
        }
      ],
      "stateMutability": "pure",
      "type": "function"
    },
    {
      "inputs": [
        {
          "components": [
            {
              "internalType": "uint256[10]",
              "name": "data",
              "type": "uint256[10]"
            }
          ],
          "internalType": "struct DomainObjs.Message",
          "name": "_message",
          "type": "tuple"
        },
        {
          "components": [
            {
              "internalType": "uint256",
              "name": "x",
              "type": "uint256"
            },
            {
              "internalType": "uint256",
              "name": "y",
              "type": "uint256"
            }
          ],
          "internalType": "struct DomainObjs.PubKey",
          "name": "_encPubKey",
          "type": "tuple"
        }
      ],
      "name": "hashMessageAndEncPubKey",
      "outputs": [
        {
          "internalType": "uint256",
          "name": "msgHash",
          "type": "uint256"
        }
      ],
      "stateMutability": "pure",
      "type": "function"
    },
    {
      "inputs": [
        {
          "components": [
            {
              "components": [
                {
                  "internalType": "uint256",
                  "name": "x",
                  "type": "uint256"
                },
                {
                  "internalType": "uint256",
                  "name": "y",
                  "type": "uint256"
                }
              ],
              "internalType": "struct DomainObjs.PubKey",
              "name": "pubKey",
              "type": "tuple"
            },
            {
              "internalType": "uint256",
              "name": "voiceCreditBalance",
              "type": "uint256"
            },
            {
              "internalType": "uint256",
              "name": "timestamp",
              "type": "uint256"
            }
          ],
          "internalType": "struct DomainObjs.StateLeaf",
          "name": "_stateLeaf",
          "type": "tuple"
        }
      ],
      "name": "hashStateLeaf",
      "outputs": [
        {
          "internalType": "uint256",
          "name": "ciphertext",
          "type": "uint256"
        }
      ],
      "stateMutability": "pure",
      "type": "function"
    },
    {
      "inputs": [],
      "name": "init",
      "outputs": [],
      "stateMutability": "nonpayable",
      "type": "function"
    },
    {
      "inputs": [],
      "name": "maxMessages",
      "outputs": [
        {
          "internalType": "uint256",
          "name": "",
          "type": "uint256"
        }
      ],
      "stateMutability": "view",
      "type": "function"
    },
    {
      "inputs": [],
      "name": "mergeMaciState",
      "outputs": [],
      "stateMutability": "nonpayable",
      "type": "function"
    },
    {
      "inputs": [],
      "name": "mergeMessageAq",
      "outputs": [],
      "stateMutability": "nonpayable",
      "type": "function"
    },
    {
      "inputs": [
        {
          "internalType": "uint256",
          "name": "_numSrQueueOps",
          "type": "uint256"
        }
      ],
      "name": "mergeMessageAqSubRoots",
      "outputs": [],
      "stateMutability": "nonpayable",
      "type": "function"
    },
    {
      "inputs": [],
      "name": "mergedStateRoot",
      "outputs": [
        {
          "internalType": "uint256",
          "name": "",
          "type": "uint256"
        }
      ],
      "stateMutability": "view",
      "type": "function"
    },
    {
      "inputs": [],
      "name": "numMessages",
      "outputs": [
        {
          "internalType": "uint256",
          "name": "",
          "type": "uint256"
        }
      ],
      "stateMutability": "view",
      "type": "function"
    },
    {
      "inputs": [],
      "name": "numSignUpsAndMessages",
      "outputs": [
        {
          "internalType": "uint256",
          "name": "numSUps",
          "type": "uint256"
        },
        {
          "internalType": "uint256",
          "name": "numMsgs",
          "type": "uint256"
        }
      ],
      "stateMutability": "view",
      "type": "function"
    },
    {
      "inputs": [],
      "name": "numSignups",
      "outputs": [
        {
          "internalType": "uint256",
          "name": "",
          "type": "uint256"
        }
      ],
      "stateMutability": "view",
      "type": "function"
    },
    {
      "inputs": [
        {
          "internalType": "uint256[2]",
          "name": "dataToPad",
          "type": "uint256[2]"
        }
      ],
      "name": "padAndHashMessage",
      "outputs": [
        {
          "components": [
            {
              "internalType": "uint256[10]",
              "name": "data",
              "type": "uint256[10]"
            }
          ],
          "internalType": "struct DomainObjs.Message",
          "name": "message",
          "type": "tuple"
        },
        {
          "components": [
            {
              "internalType": "uint256",
              "name": "x",
              "type": "uint256"
            },
            {
              "internalType": "uint256",
              "name": "y",
              "type": "uint256"
            }
          ],
          "internalType": "struct DomainObjs.PubKey",
          "name": "padKey",
          "type": "tuple"
        },
        {
          "internalType": "uint256",
          "name": "msgHash",
          "type": "uint256"
        }
      ],
      "stateMutability": "pure",
      "type": "function"
    },
    {
      "inputs": [
        {
          "components": [
            {
              "internalType": "uint256[10]",
              "name": "data",
              "type": "uint256[10]"
            }
          ],
          "internalType": "struct DomainObjs.Message",
          "name": "_message",
          "type": "tuple"
        },
        {
          "components": [
            {
              "internalType": "uint256",
              "name": "x",
              "type": "uint256"
            },
            {
              "internalType": "uint256",
              "name": "y",
              "type": "uint256"
            }
          ],
          "internalType": "struct DomainObjs.PubKey",
          "name": "_encPubKey",
          "type": "tuple"
        }
      ],
      "name": "publishMessage",
      "outputs": [],
      "stateMutability": "nonpayable",
      "type": "function"
    },
    {
      "inputs": [
        {
          "components": [
            {
              "internalType": "uint256[10]",
              "name": "data",
              "type": "uint256[10]"
            }
          ],
          "internalType": "struct DomainObjs.Message[]",
          "name": "_messages",
          "type": "tuple[]"
        },
        {
          "components": [
            {
              "internalType": "uint256",
              "name": "x",
              "type": "uint256"
            },
            {
              "internalType": "uint256",
              "name": "y",
              "type": "uint256"
            }
          ],
          "internalType": "struct DomainObjs.PubKey[]",
          "name": "_encPubKeys",
          "type": "tuple[]"
        }
      ],
      "name": "publishMessageBatch",
      "outputs": [],
      "stateMutability": "nonpayable",
      "type": "function"
    },
    {
      "inputs": [
        {
          "internalType": "uint256[]",
          "name": "array",
          "type": "uint256[]"
        }
      ],
      "name": "sha256Hash",
      "outputs": [
        {
          "internalType": "uint256",
          "name": "result",
          "type": "uint256"
        }
      ],
      "stateMutability": "pure",
      "type": "function"
    },
    {
      "inputs": [],
      "name": "stateMerged",
      "outputs": [
        {
          "internalType": "bool",
          "name": "",
          "type": "bool"
        }
      ],
      "stateMutability": "view",
      "type": "function"
    },
    {
      "inputs": [],
      "name": "treeDepths",
      "outputs": [
        {
          "internalType": "uint8",
          "name": "intStateTreeDepth",
          "type": "uint8"
        },
        {
          "internalType": "uint8",
          "name": "messageTreeSubDepth",
          "type": "uint8"
        },
        {
          "internalType": "uint8",
          "name": "messageTreeDepth",
          "type": "uint8"
        },
        {
          "internalType": "uint8",
          "name": "voteOptionTreeDepth",
          "type": "uint8"
        }
      ],
      "stateMutability": "view",
      "type": "function"
    }
  ],
  "bytecode": "0x610120604052604051620021a9380380620021a98339810160408190526200002791620003da565b825160208401516200003a91906200013a565b62000058576040516379fae7af60e01b815260040160405180910390fd5b8251600181905560208401516002819055620000759190620001ef565b6080528151600a80546001600160a01b039283166001600160a01b031991821617909155602080850151600b80549190941692169190911790915560c08690528451600980549287015160408801805160608a015160ff90811663010000000263ff0000001992821662010000029290921663ffff0000199482166101000261ffff199098169190961617959095179190911692909217929092179091554260a05260e0829052516200012a906005620005c8565b61010052506200066f9350505050565b6000806000805160206200218983398151915284850990506000600080516020620021898339815191528485099050600060008051602062002189833981519152826000805160206200218983398151915285620292fc0908905060006000805160206200218983398151915280846000805160206200218983398151915287620292f809096001089050620001e182826000805160206200218983398151915262000218565b159450505050505b92915050565b6000620001fb620002db565b8381526020810183905262000210816200025b565b949350505050565b60008383811162000232576200022f8382620005f6565b90505b8280620002435762000243620005e0565b60006200025186846200060c565b0895945050505050565b6040516314d2f97b60e11b815260009073__$6574937f64fc1d7710ec0e28b7a36713bb$__906329a5f2f6906200029790859060040162000622565b602060405180830381865af4158015620002b5573d6000803e3d6000fd5b505050506040513d601f19601f82011682018060405250810190620001e9919062000655565b60405180604001604052806002906020820280368337509192915050565b604080519081016001600160401b03811182821017156200032a57634e487b7160e01b600052604160045260246000fd5b60405290565b604051608081016001600160401b03811182821017156200032a57634e487b7160e01b600052604160045260246000fd5b805160ff811681146200037357600080fd5b919050565b6001600160a01b03811681146200038e57600080fd5b50565b600060408284031215620003a457600080fd5b620003ae620002f9565b90508151620003bd8162000378565b81526020820151620003cf8162000378565b602082015292915050565b6000806000806000858703610140811215620003f557600080fd5b865195506080601f19820112156200040c57600080fd5b6200041662000330565b620004246020890162000361565b8152620004346040890162000361565b6020820152620004476060890162000361565b60408201526200045a6080890162000361565b606082015294506040609f19820112156200047457600080fd5b506200047f620002f9565b60a0870151815260c087015160208201529250620004a18760e0880162000391565b915061012086015190509295509295909350565b634e487b7160e01b600052601160045260246000fd5b600181815b808511156200050c578160001904821115620004f057620004f0620004b5565b80851615620004fe57918102915b93841c9390800290620004d0565b509250929050565b6000826200052557506001620001e9565b816200053457506000620001e9565b81600181146200054d5760028114620005585762000578565b6001915050620001e9565b60ff8411156200056c576200056c620004b5565b50506001821b620001e9565b5060208310610133831016604e8410600b84101617156200059d575081810a620001e9565b620005a98383620004cb565b8060001904821115620005c057620005c0620004b5565b029392505050565b6000620005d960ff84168362000514565b9392505050565b634e487b7160e01b600052601260045260246000fd5b80820180821115620001e957620001e9620004b5565b81810381811115620001e957620001e9620004b5565b60408101818360005b60028110156200064c5781518352602092830192909101906001016200062b565b50505092915050565b6000602082840312156200066857600080fd5b5051919050565b60805160a05160c05160e05161010051611a816200070860003960008181610299015261066b01526000818161033a0152610d65015260008181610270015281816105100152818161062b0152818161090301528181610b3f0152610c7401526000818161024f015281816104e701528181610602015281816108da01528181610b160152610c4b015260006103940152611a816000f3fe608060405234801561001057600080fd5b50600436106101d95760003560e01c80637028bb0e11610104578063ac98e5df116100a2578063e1c7392a11610071578063e1c7392a14610490578063e33b13a014610498578063edbfe83f146104b5578063fba630f2146104d757600080fd5b8063ac98e5df146103e4578063bc14ee2b1461043a578063bea140b314610474578063c17268d91461048757600080fd5b80638aa0ba92116100de5780638aa0ba921461038f5780639c971729146103b65780639cfced97146103c9578063a28bc38c146103dc57600080fd5b80637028bb0e1461035c5780637d0a81c8146103695780638a2a3dfb1461037c57600080fd5b80634f367f0f1161017c578063623f54ac1161014b578063623f54ac146102f557806362a361bb14610308578063683f3dc31461031b5780636d582d341461033557600080fd5b80634f367f0f146102bb57806358bfc379146102c65780635bb93995146102d95780635d5909dd146102ec57600080fd5b806331e766a5116101b857806331e766a5146102175780633dfb88b21461023a5780634909229f1461024d5780634966efd61461029457600080fd5b8062329f2f146101de5780630f4cf692146101e857806327bea0da14610204575b600080fd5b6101e66104e0565b005b6101f160065481565b6040519081526020015b60405180910390f35b6101e6610212366004611319565b6105fb565b600154600254610225919082565b604080519283526020830191909152016101fb565b6101f161024836600461135c565b6107a5565b7f00000000000000000000000000000000000000000000000000000000000000007f0000000000000000000000000000000000000000000000000000000000000000610225565b6101f17f000000000000000000000000000000000000000000000000000000000000000081565b600754600654610225565b6101f16102d43660046113da565b610826565b6101f16102e7366004611480565b6108ae565b6101f160075481565b6101e66103033660046114a2565b6108d3565b6101f161031636600461156b565b6109c7565b610323600a81565b60405160ff90911681526020016101fb565b6101f17f000000000000000000000000000000000000000000000000000000000000000081565b6008546103239060ff1681565b6101f1610377366004611615565b610a01565b6101f161038a366004611677565b610a41565b6101f17f000000000000000000000000000000000000000000000000000000000000000081565b6101e66103c43660046116ae565b610b0f565b6101f16103d73660046116c7565b610c0a565b6101e6610c44565b60095461040d9060ff808216916101008104821691620100008204811691630100000090041684565b6040805160ff958616815293851660208501529184169183019190915290911660608201526080016101fb565b600a54600b54610454916001600160a01b03908116911682565b604080516001600160a01b039384168152929091166020830152016101fb565b6101f1610482366004611720565b610e7f565b6101f160055481565b6101e6610eb9565b6004546104a59060ff1681565b60405190151581526020016101fb565b6104c86104c336600461156b565b610fdc565b6040516101fb939291906117a5565b6101f160035481565b600061050c7f0000000000000000000000000000000000000000000000000000000000000000426117e8565b90507f0000000000000000000000000000000000000000000000000000000000000000811161054e57604051630931513d60e11b815260040160405180910390fd5b600b546009546040516324a47aeb60e01b81526201000090910460ff1660048201526000916001600160a01b0316906324a47aeb906024016020604051808303816000875af11580156105a5573d6000803e3d6000fd5b505050506040513d601f19601f820116820180604052508101906105c991906117fb565b60405190915081907fc5624680ab5d50c84507f9e0dc2032163de2bda906ab8a661a53dd4d43bd5dc790600090a25050565b60006106277f0000000000000000000000000000000000000000000000000000000000000000426117e8565b90507f000000000000000000000000000000000000000000000000000000000000000081106106695760405163148fb9a960e31b815260040160405180910390fd5b7f0000000000000000000000000000000000000000000000000000000000000000600654106106ab57604051631ec0b2f760e01b815260040160405180910390fd5b6106ba82356020840135611084565b6106d7576040516379fae7af60e01b815260040160405180910390fd5b60068054600101905560006106f58461038a36869003860186611814565b600b54604051631ffc735d60e01b8152600481018390529192506001600160a01b031690631ffc735d906024016020604051808303816000875af1158015610741573d6000803e3d6000fd5b505050506040513d601f19601f8201168201806040525081019061076591906117fb565b507f4be9ef9ae736055964ead1cf3c83a19c8b662b5df2bd4414776bb64d81f75d158484604051610797929190611830565b60405180910390a150505050565b60405163248f667760e01b815260009073__$ce9c2c925f157047e54fa833ec4e61409f$__9063248f6677906107df908590600401611859565b602060405180830381865af41580156107fc573d6000803e3d6000fd5b505050506040513d601f19601f8201168201806040525081019061082091906117fb565b92915050565b6000600080516020611a2c83398151915260028360405160200161084a919061188a565b60408051601f1981840301815290829052610864916118c0565b602060405180830381855afa158015610881573d6000803e3d6000fd5b5050506040513d601f19601f820116820180604052508101906108a491906117fb565b6108209190611905565b60006108b8611169565b838152602081018390526108cb816109c7565b949350505050565b60006108ff7f0000000000000000000000000000000000000000000000000000000000000000426117e8565b90507f000000000000000000000000000000000000000000000000000000000000000081106109415760405163148fb9a960e31b815260040160405180910390fd5b8382146109615760405163ca3487f760e01b815260040160405180910390fd5b8360005b818110156109be576109b687878381811061098257610982611927565b90506101400201803603810190610999919061193d565b8686848181106109ab576109ab611927565b9050604002016105fb565b600101610965565b50505050505050565b6040516314d2f97b60e11b815260009073__$6574937f64fc1d7710ec0e28b7a36713bb$__906329a5f2f6906107df90859060040161195a565b6000610a0b611187565b8251518152825160209081015181830152830151816002602002015260408301516060820152610a3a816107a5565b9392505050565b6000610a4b6111a5565b8351518152835160209081015190820152835160409081015190820152835160609081015190820152835160809081015190820152610a886111a5565b845160a001518152845160c001516020820152845160e00151604080830191909152855161010001516060830152855161012001516080808401919091528151908101909152610b069080610adc85610c0a565b8152602001610aea84610c0a565b81526020018660000151815260200186602001518152506107a5565b95945050505050565b6000610b3b7f0000000000000000000000000000000000000000000000000000000000000000426117e8565b90507f00000000000000000000000000000000000000000000000000000000000000008111610b7d57604051630931513d60e11b815260040160405180910390fd5b600b5460405163c15da65b60e01b8152600481018490526001600160a01b039091169063c15da65b90602401600060405180830381600087803b158015610bc357600080fd5b505af1158015610bd7573d6000803e3d6000fd5b50506040518492507f1245b881cb30fdad22b2f9fde2d5c2a3605bbdf272d5e8a2235d8c9e81aba2ce9150600090a25050565b604051630926f44b60e31b815260009073__$20527677031d76601747626a9845039fe4$__90634937a258906107df908590600401611982565b6000610c707f0000000000000000000000000000000000000000000000000000000000000000426117e8565b90507f00000000000000000000000000000000000000000000000000000000000000008111610cb257604051630931513d60e11b815260040160405180910390fd5b60045460ff1615610cd65760405163b703d3c960e01b815260040160405180910390fd5b6004805460ff19166001178155600a546040805163423f3e1960e01b815290516000936001600160a01b039093169263423f3e19928082019260209290918290030181865afa158015610d2d573d6000803e3d6000fd5b505050506040513d601f19601f82011682018060405250810190610d5191906117fb565b60038190559050610d606111c3565b8181527f0000000000000000000000000000000000000000000000000000000000000000602082015260006040820152610d9981610e7f565b600555600a546040805163122db15360e01b815290516000926001600160a01b03169163122db1539160048083019260209291908290030181865afa158015610de6573d6000803e3d6000fd5b505050506040513d601f19601f82011682018060405250810190610e0a91906117fb565b6007819055905060015b818160ff166001901b64ffffffffff161015610e3c5780610e34816119aa565b915050610e14565b6008805460ff191660ff8316179055604051829085907f9f5164261ad26064467dc1be8861f75f2e57ae75579ebb4e500894b0ce9a982390600090a35050505050565b6040516304b98e1d60e31b815260009073__$dc01a9744591ab014bc46a3b7671cdaefb$__906325cc70e8906107df9085906004016119c9565b60005460ff1615610edd576040516342a2e18d60e01b815260040160405180910390fd5b6000805460ff19166001908117909155600680549091019055610efe611169565b7f12817f4161f2f5ded33f26c55735a77e80e4f8975483c8c2704745128417f71181526000602082018190528080610f3584610fdc565b600b54604051631ffc735d60e01b81526004810183905293965091945092506001600160a01b031690631ffc735d906024016020604051808303816000875af1158015610f86573d6000803e3d6000fd5b505050506040513d601f19601f82011682018060405250810190610faa91906117fb565b507f4be9ef9ae736055964ead1cf3c83a19c8b662b5df2bd4414776bb64d81f75d1583836040516107979291906119f1565b610fe46111e1565b604080518082019091526000808252602082015260006110026111f9565b84518152602080860151828201526040805180820182527f171e826ad4a870fd925e0bf0e87884e70e080879c2205ef10114f28a3b6f6dd781527f2bd407d897fbbca9f88adfd2d15252e69de8c1564eb4d3d27162e259172f1a1d818401528151928301909152828252909450925061107b8484610a41565b93959294505050565b600080600080516020611a2c83398151915284850990506000600080516020611a2c83398151915284850990506000600080516020611a2c83398151915282600080516020611a2c83398151915285620292fc090890506000600080516020611a2c8339815191528084600080516020611a2c83398151915287620292f8090960010890506111228282600080516020611a2c83398151915261112e565b15979650505050505050565b600083838111611145576111428382611a18565b90505b8280611153576111536118ef565b600061115f86846117e8565b0895945050505050565b60405180604001604052806002906020820280368337509192915050565b60405180608001604052806004906020820280368337509192915050565b6040518060a001604052806005906020820280368337509192915050565b60405180606001604052806003906020820280368337509192915050565b60405180602001604052806111f46111f9565b905290565b604051806101400160405280600a906020820280368337509192915050565b634e487b7160e01b600052604160045260246000fd5b604051610140810167ffffffffffffffff8111828210171561125257611252611218565b60405290565b604051601f8201601f1916810167ffffffffffffffff8111828210171561128157611281611218565b604052919050565b600061014080838503121561129d57600080fd5b604051602080820182811067ffffffffffffffff821117156112c1576112c1611218565b806040525081935085601f8601126112d857600080fd5b6112e061122e565b9285019280878511156112f257600080fd5b865b8581101561130b57803583529183019183016112f4565b509092525091949350505050565b60008082840361018081121561132e57600080fd5b6113388585611289565b9250604061013f198201121561134d57600080fd5b50610140830190509250929050565b60006080828403121561136e57600080fd5b82601f83011261137d57600080fd5b6040516080810181811067ffffffffffffffff821117156113a0576113a0611218565b6040528060808401858111156113b557600080fd5b845b818110156113cf5780358352602092830192016113b7565b509195945050505050565b600060208083850312156113ed57600080fd5b823567ffffffffffffffff8082111561140557600080fd5b818501915085601f83011261141957600080fd5b81358181111561142b5761142b611218565b8060051b915061143c848301611258565b818152918301840191848101908884111561145657600080fd5b938501935b838510156114745784358252938501939085019061145b565b98975050505050505050565b6000806040838503121561149357600080fd5b50508035926020909101359150565b600080600080604085870312156114b857600080fd5b843567ffffffffffffffff808211156114d057600080fd5b818701915087601f8301126114e457600080fd5b8135818111156114f357600080fd5b8860206101408302850101111561150957600080fd5b60209283019650945090860135908082111561152457600080fd5b818701915087601f83011261153857600080fd5b81358181111561154757600080fd5b8860208260061b850101111561155c57600080fd5b95989497505060200194505050565b60006040828403121561157d57600080fd5b82601f83011261158c57600080fd5b6040516040810181811067ffffffffffffffff821117156115af576115af611218565b80604052508060408401858111156113b557600080fd5b6000604082840312156115d857600080fd5b6040516040810181811067ffffffffffffffff821117156115fb576115fb611218565b604052823581526020928301359281019290925250919050565b60006080828403121561162757600080fd5b6040516060810181811067ffffffffffffffff8211171561164a5761164a611218565b60405261165784846115c6565b815260408301356020820152606083013560408201528091505092915050565b600080610180838503121561168b57600080fd5b6116958484611289565b91506116a58461014085016115c6565b90509250929050565b6000602082840312156116c057600080fd5b5035919050565b600060a082840312156116d957600080fd5b82601f8301126116e857600080fd5b60405160a0810181811067ffffffffffffffff8211171561170b5761170b611218565b6040528060a08401858111156113b557600080fd5b60006060828403121561173257600080fd5b82601f83011261174157600080fd5b6040516060810181811067ffffffffffffffff8211171561176457611764611218565b6040528060608401858111156113b557600080fd5b80518260005b600a81101561179e57825182526020928301929091019060010161177f565b5050505050565b6101a081016117b48286611779565b83516101408301526020909301516101608201526101800152919050565b634e487b7160e01b600052601160045260246000fd5b81810381811115610820576108206117d2565b60006020828403121561180d57600080fd5b5051919050565b60006040828403121561182657600080fd5b610a3a83836115c6565b610180810161183f8285611779565b823561014083015260208301356101608301529392505050565b60808101818360005b6004811015611881578151835260209283019290910190600101611862565b50505092915050565b815160009082906020808601845b838110156118b457815185529382019390820190600101611898565b50929695505050505050565b6000825160005b818110156118e157602081860181015185830152016118c7565b506000920191825250919050565b634e487b7160e01b600052601260045260246000fd5b60008261192257634e487b7160e01b600052601260045260246000fd5b500690565b634e487b7160e01b600052603260045260246000fd5b6000610140828403121561195057600080fd5b610a3a8383611289565b60408101818360005b6002811015611881578151835260209283019290910190600101611963565b60a08101818360005b600581101561188157815183526020928301929091019060010161198b565b600060ff821660ff81036119c0576119c06117d2565b60010192915050565b60608101818360005b60038110156118815781518352602092830192909101906001016119d2565b6101808101611a008285611779565b82516101408301526020830151610160830152610a3a565b80820180821115610820576108206117d256fe30644e72e131a029b85045b68181585d2833e84879b9709143e1f593f0000001a264697066735822122056c29b23789527306afc0d3de04a0c67aa88175f2f1be172eeec64df8c4bd00764736f6c6343000814003330644e72e131a029b85045b68181585d2833e84879b9709143e1f593f0000001",
  "linkReferences": {
    "contracts/crypto/PoseidonT3.sol": {
      "PoseidonT3": [
        {
          "length": 20,
          "start": 621
        },
        {
          "length": 20,
          "start": 4321
        }
      ]
    },
    "contracts/crypto/PoseidonT4.sol": {
      "PoseidonT4": [
        {
          "length": 20,
          "start": 5529
        }
      ]
    },
    "contracts/crypto/PoseidonT5.sol": {
      "PoseidonT5": [
        {
          "length": 20,
          "start": 3775
        }
      ]
    },
    "contracts/crypto/PoseidonT6.sol": {
      "PoseidonT6": [
        {
          "length": 20,
          "start": 4900
        }
      ]
    }
  },
  "deployedLinkReferences": {
    "contracts/crypto/PoseidonT3.sol": {
      "PoseidonT3": [
        {
          "length": 20,
          "start": 2521
        }
      ]
    },
    "contracts/crypto/PoseidonT4.sol": {
      "PoseidonT4": [
        {
          "length": 20,
          "start": 3729
        }
      ]
    },
    "contracts/crypto/PoseidonT5.sol": {
      "PoseidonT5": [
        {
          "length": 20,
          "start": 1975
        }
      ]
    },
    "contracts/crypto/PoseidonT6.sol": {
      "PoseidonT6": [
        {
          "length": 20,
          "start": 3100
        }
      ]
    }
  }
}