{
  "_format": "hh-sol-artifact-1",
  "contractName": "AccQueueQuinary0",
  "sourceName": "contracts/trees/AccQueueQuinary0.sol",
  "abi": [
    {
      "inputs": [
        {
          "internalType": "uint256",
          "name": "_subDepth",
          "type": "uint256"
        }
      ],
      "stateMutability": "nonpayable",
      "type": "constructor"
    },
    {
      "inputs": [],
      "name": "DepthCannotBeZero",
      "type": "error"
    },
    {
      "inputs": [
        {
          "internalType": "uint256",
          "name": "_depth",
          "type": "uint256"
        },
        {
          "internalType": "uint256",
          "name": "max",
          "type": "uint256"
        }
      ],
      "name": "DepthTooLarge",
      "type": "error"
    },
    {
      "inputs": [
        {
          "internalType": "uint256",
          "name": "_depth",
          "type": "uint256"
        },
        {
          "internalType": "uint256",
          "name": "min",
          "type": "uint256"
        }
      ],
      "name": "DepthTooSmall",
      "type": "error"
    },
    {
      "inputs": [],
      "name": "InvalidHashLength",
      "type": "error"
    },
    {
      "inputs": [
        {
          "internalType": "uint256",
          "name": "_index",
          "type": "uint256"
        }
      ],
      "name": "InvalidIndex",
      "type": "error"
    },
    {
      "inputs": [],
      "name": "InvalidLevel",
      "type": "error"
    },
    {
      "inputs": [],
      "name": "NothingToMerge",
      "type": "error"
    },
    {
      "inputs": [
        {
          "internalType": "address",
          "name": "owner",
          "type": "address"
        }
      ],
      "name": "OwnableInvalidOwner",
      "type": "error"
    },
    {
      "inputs": [
        {
          "internalType": "address",
          "name": "account",
          "type": "address"
        }
      ],
      "name": "OwnableUnauthorizedAccount",
      "type": "error"
    },
    {
      "inputs": [],
      "name": "SubDepthCannotBeZero",
      "type": "error"
    },
    {
      "inputs": [],
      "name": "SubTreesAlreadyMerged",
      "type": "error"
    },
    {
      "inputs": [],
      "name": "SubTreesNotMerged",
      "type": "error"
    },
    {
      "inputs": [
        {
          "internalType": "uint256",
          "name": "_subDepth",
          "type": "uint256"
        },
        {
          "internalType": "uint256",
          "name": "max",
          "type": "uint256"
        }
      ],
      "name": "SubdepthTooLarge",
      "type": "error"
    },
    {
      "anonymous": false,
      "inputs": [
        {
          "indexed": true,
          "internalType": "address",
          "name": "previousOwner",
          "type": "address"
        },
        {
          "indexed": true,
          "internalType": "address",
          "name": "newOwner",
          "type": "address"
        }
      ],
      "name": "OwnershipTransferred",
      "type": "event"
    },
    {
      "inputs": [],
      "name": "MAX_DEPTH",
      "outputs": [
        {
          "internalType": "uint256",
          "name": "",
          "type": "uint256"
        }
      ],
      "stateMutability": "view",
      "type": "function"
    },
    {
      "inputs": [],
      "name": "calcMinHeight",
      "outputs": [
        {
          "internalType": "uint256",
          "name": "depth",
          "type": "uint256"
        }
      ],
      "stateMutability": "view",
      "type": "function"
    },
    {
      "inputs": [
        {
          "internalType": "uint256",
          "name": "_leaf",
          "type": "uint256"
        }
      ],
      "name": "enqueue",
      "outputs": [
        {
          "internalType": "uint256",
          "name": "leafIndex",
          "type": "uint256"
        }
      ],
      "stateMutability": "nonpayable",
      "type": "function"
    },
    {
      "inputs": [],
      "name": "fill",
      "outputs": [],
      "stateMutability": "nonpayable",
      "type": "function"
    },
    {
      "inputs": [
        {
          "internalType": "uint256",
          "name": "_depth",
          "type": "uint256"
        }
      ],
      "name": "getMainRoot",
      "outputs": [
        {
          "internalType": "uint256",
          "name": "mainRoot",
          "type": "uint256"
        }
      ],
      "stateMutability": "view",
      "type": "function"
    },
    {
      "inputs": [],
      "name": "getSmallSRTroot",
      "outputs": [
        {
          "internalType": "uint256",
          "name": "smallSubTreeRoot",
          "type": "uint256"
        }
      ],
      "stateMutability": "view",
      "type": "function"
    },
    {
      "inputs": [],
      "name": "getSrIndices",
      "outputs": [
        {
          "internalType": "uint256",
          "name": "next",
          "type": "uint256"
        },
        {
          "internalType": "uint256",
          "name": "current",
          "type": "uint256"
        }
      ],
      "stateMutability": "view",
      "type": "function"
    },
    {
      "inputs": [
        {
          "internalType": "uint256",
          "name": "_index",
          "type": "uint256"
        }
      ],
      "name": "getSubRoot",
      "outputs": [
        {
          "internalType": "uint256",
          "name": "subRoot",
          "type": "uint256"
        }
      ],
      "stateMutability": "view",
      "type": "function"
    },
    {
      "inputs": [
        {
          "internalType": "uint256[2]",
          "name": "array",
          "type": "uint256[2]"
        }
      ],
      "name": "hash2",
      "outputs": [
        {
          "internalType": "uint256",
          "name": "result",
          "type": "uint256"
        }
      ],
      "stateMutability": "pure",
      "type": "function"
    },
    {
      "inputs": [
        {
          "internalType": "uint256[3]",
          "name": "array",
          "type": "uint256[3]"
        }
      ],
      "name": "hash3",
      "outputs": [
        {
          "internalType": "uint256",
          "name": "result",
          "type": "uint256"
        }
      ],
      "stateMutability": "pure",
      "type": "function"
    },
    {
      "inputs": [
        {
          "internalType": "uint256[4]",
          "name": "array",
          "type": "uint256[4]"
        }
      ],
      "name": "hash4",
      "outputs": [
        {
          "internalType": "uint256",
          "name": "result",
          "type": "uint256"
        }
      ],
      "stateMutability": "pure",
      "type": "function"
    },
    {
      "inputs": [
        {
          "internalType": "uint256[5]",
          "name": "array",
          "type": "uint256[5]"
        }
      ],
      "name": "hash5",
      "outputs": [
        {
          "internalType": "uint256",
          "name": "result",
          "type": "uint256"
        }
      ],
      "stateMutability": "pure",
      "type": "function"
    },
    {
      "inputs": [
        {
          "internalType": "uint256",
          "name": "left",
          "type": "uint256"
        },
        {
          "internalType": "uint256",
          "name": "right",
          "type": "uint256"
        }
      ],
      "name": "hashLeftRight",
      "outputs": [
        {
          "internalType": "uint256",
          "name": "result",
          "type": "uint256"
        }
      ],
      "stateMutability": "pure",
      "type": "function"
    },
    {
      "inputs": [
        {
          "internalType": "uint256",
          "name": "_level",
          "type": "uint256"
        },
        {
          "internalType": "uint256",
          "name": "_leaf",
          "type": "uint256"
        }
      ],
      "name": "hashLevelLeaf",
      "outputs": [
        {
          "internalType": "uint256",
          "name": "hashed",
          "type": "uint256"
        }
      ],
      "stateMutability": "view",
      "type": "function"
    },
    {
      "inputs": [
        {
          "internalType": "uint256",
          "name": "_subRoot",
          "type": "uint256"
        }
      ],
      "name": "insertSubTree",
      "outputs": [],
      "stateMutability": "nonpayable",
      "type": "function"
    },
    {
      "inputs": [
        {
          "internalType": "uint256",
          "name": "_depth",
          "type": "uint256"
        }
      ],
      "name": "merge",
      "outputs": [
        {
          "internalType": "uint256",
          "name": "root",
          "type": "uint256"
        }
      ],
      "stateMutability": "nonpayable",
      "type": "function"
    },
    {
      "inputs": [
        {
          "internalType": "uint256",
          "name": "_numSrQueueOps",
          "type": "uint256"
        }
      ],
      "name": "mergeSubRoots",
      "outputs": [],
      "stateMutability": "nonpayable",
      "type": "function"
    },
    {
      "inputs": [],
      "name": "numLeaves",
      "outputs": [
        {
          "internalType": "uint256",
          "name": "",
          "type": "uint256"
        }
      ],
      "stateMutability": "view",
      "type": "function"
    },
    {
      "inputs": [],
      "name": "owner",
      "outputs": [
        {
          "internalType": "address",
          "name": "",
          "type": "address"
        }
      ],
      "stateMutability": "view",
      "type": "function"
    },
    {
      "inputs": [],
      "name": "renounceOwnership",
      "outputs": [],
      "stateMutability": "nonpayable",
      "type": "function"
    },
    {
      "inputs": [
        {
          "internalType": "uint256[]",
          "name": "array",
          "type": "uint256[]"
        }
      ],
      "name": "sha256Hash",
      "outputs": [
        {
          "internalType": "uint256",
          "name": "result",
          "type": "uint256"
        }
      ],
      "stateMutability": "pure",
      "type": "function"
    },
    {
      "inputs": [],
      "name": "subTreesMerged",
      "outputs": [
        {
          "internalType": "bool",
          "name": "",
          "type": "bool"
        }
      ],
      "stateMutability": "view",
      "type": "function"
    },
    {
      "inputs": [
        {
          "internalType": "address",
          "name": "newOwner",
          "type": "address"
        }
      ],
      "name": "transferOwnership",
      "outputs": [],
      "stateMutability": "nonpayable",
      "type": "function"
    },
    {
      "inputs": [],
      "name": "treeMerged",
      "outputs": [
        {
          "internalType": "bool",
          "name": "",
          "type": "bool"
        }
      ],
      "stateMutability": "view",
      "type": "function"
    }
  ],
  "bytecode": "0x6101006040523480156200001257600080fd5b50604051620022e5380380620022e583398101604081905262000035916200060d565b8080600533806200006157604051631e4fbdf760e01b8152600060048201526024015b60405180910390fd5b6200006c81620005bd565b50816000036200008f5760405163682e504160e11b815260040160405180910390fd5b6020821115620000bd57604051637ccdcc9760e11b8152600481018390526020602482015260440162000058565b80600214158015620000d0575080600514155b15620000ef57604051636f7b6c0360e01b815260040160405180910390fd5b6002811460e052608082905260a08190526200010c82826200073c565b60c052505060006101725550507f2066be41bebe6caf7e079360abe14fbf9118c62eabc42e2fe75e342b160a95bc610173557f2a956d37d8e73692877b104630a08cc6840036f235f2134b0606769a369d85c1610174557f2f9791ba036a4148ff026c074e713a4824415530dec0f0b16c5115aa00e4b825610175557f2c41a7294c7ef5c9c5950dc627c55a00adb6712548bcbd6cd8569b1f2e5acc2a610176557f2594ba68eb0f314eabbeea1d847374cc2be7965944dec513746606a1f2fadf2e610177557f05c697158c9032bfd7041223a7dba696396388129118ae8f867266eb64fe7636610178557f272b3425fcc3b2c45015559b9941fde27527aab5226045bf9b0a6c1fe902d601610179557f268d82cc07023a1d5e7c987cbd0328b34762c9ea21369bea418f08b71b16846a61017a557f2e002d67c30ee0a2bd5fdecc4fb81646ecd6eb0746f5ff2d9b1d1b522a4a3f6861017b557f0f14c3fb900b66f523694106f7fc3cbec1f5eee571f047a9eb05bef717d3e06461017c557f0d14b45c0e1f64503a143581a25197e022ff9448c190d76938c3567690edac3d61017d557f13d9fc76aa543e8a9b76d135707c9d19a64d5a0c80f30782172f891372088e4661017e557f0675595e14d14b0090f9d55c9cb5c35c21dbda1f4a085331efe0881057f0166b61017f557f13be4e0dbcdef8db5591266757eb74f469ab292af3f51f2bfa7dce9329968300610180557e8536b7a84e81b405b1c728a8f1df587769d62886a6f119b329b8890b249b1c610181557f19a26ce828392740c805f0dda0ae579141c3994b32e70ca40fc2d81f8fc7db71610182557f0e6e60fa08aac31c4e9559949f07e827288529930666a6881a11fd75e1039df3610183557f1171bba7cf5aa5b180107ca2477530b54cac36e319b941f9b926d1cd1dbe1edd610184557f111e652285648ef599a1837b08592bdbca5d68f5bebd664037e299a63381fa02610185557f0754a7bd681c615ad1ef13cd989b84abe3d4238cca998afd0e3eb7f72a9de170610186557f1aa297f9167fdbd55216e2a3749c45f9c02b90f4d514eb215427cbf35b20521c610187557e04286c37b40719bc5965094bea7829072f6e266c459335a0073e01b1e34ff8610188557f24e42086ccacec0ec63c155c5025522380e31949c404d1f85f60abf1cc9783e7610189557f2a3d2341943eb44bb0393ff0b1fe29bb28751a5b3c930d84cd50695fd670b78961018a557f25b472b29aee9609656a479e6f2849b639cf7d648928e4fdfe42e23df6a36b1861018b557f0bb5936af91b5d26a71f6a5462a302b7998f1125128ee314a0db9edd176cd10161018c557f13e21ade8167aaa2ee31aff2f935f1c925f58afff7777ad0edaabcb6318bf98361018d557f0ffe7338161a48f61103502248a7aed967ac9588d70625e615027f513736057f61018e557f2fd80f46f25a3bcf7ecd45f0d7aa1b56d7592fae0935d19338f3bda14561625661018f557f03870f3369d38bb70ed5aed2b000f94fef50114b2287f6f7f5ae7f9c7f68a437610190557f21ce74135341aa614128f395c77143eaabb8b346f9c46e1f374b95752f26d0d5610191557f230371fcbfada65aa356c41251f54e892320dcf1714d550e29f597b7411f54706101925562000751565b600080546001600160a01b038381166001600160a01b0319831681178455604051919092169283917f8be0079c531659141344cd1fd0a4f28419497f9722a3daafe3b4186f6b6457e09190a35050565b6000602082840312156200062057600080fd5b5051919050565b634e487b7160e01b600052601160045260246000fd5b600181815b808511156200067e57816000190482111562000662576200066262000627565b808516156200067057918102915b93841c939080029062000642565b509250929050565b600082620006975750600162000736565b81620006a65750600062000736565b8160018114620006bf5760028114620006ca57620006ea565b600191505062000736565b60ff841115620006de57620006de62000627565b50506001821b62000736565b5060208310610133831016604e8410600b84101617156200070f575081810a62000736565b6200071b83836200063d565b806000190482111562000732576200073262000627565b0290505b92915050565b60006200074a838362000686565b9392505050565b60805160a05160c05160e051611ad5620008106000396000818161062f01526110d00152600081816103ea01528181610a3801528181610ad501528181610c920152610d950152600081816103230152818161056e015281816106f701528181610bc701528181610ed60152818161104a01526112c001526000818161041a0152818161047b0152818161054401528181610c0001528181610ccb01528181610d1501528181610e7701528181610f2d01526111fb0152611ad56000f3fe608060405234801561001057600080fd5b50600436106101585760003560e01c806381d6a24a116100c3578063c00bdbcc1161007c578063c00bdbcc146102b8578063c15da65b146102cb578063d9c55ce1146102de578063dda89a6e146102e6578063e93fb4d4146102f0578063f2fde38b1461030357600080fd5b806381d6a24a146102455780638da5cb5b146102615780639cfced971461027c578063a27154ba1461028f578063b6a64acd14610297578063bea140b3146102a557600080fd5b806358bfc3791161011557806358bfc379146101cc5780635bb93995146101df5780635bf1fa4d146101f257806362a361bb1461020557806369e7c58614610218578063715018a61461023b57600080fd5b80631b9b8aa71461015d5780631ffc735d1461018357806324a47aeb146101965780633bfa6fce146101a95780633dfb88b2146101b15780633e1a8cc1146101c4575b600080fd5b61017061016b3660046114e2565b610316565b6040519081526020015b60405180910390f35b6101706101913660046114e2565b610399565b6101706101a43660046114e2565b6104c7565b6101706106eb565b6101706101bf366004611542565b610736565b6101706107b7565b6101706101da3660046115c0565b6107e6565b6101706101ed366004611666565b610880565b610170610200366004611666565b6108a5565b610170610213366004611688565b610944565b61016e5461022b90610100900460ff1681565b604051901515815260200161017a565b61024361097e565b005b610170546001546040805192835260208301919091520161017a565b6000546040516001600160a01b03909116815260200161017a565b61017061028a3660046116e3565b610992565b610170602081565b61016e5461022b9060ff1681565b6101706102b336600461173c565b6109cc565b6102436102c63660046114e2565b610a06565b6102436102d93660046114e2565b610a82565b610243610c88565b6101706101715481565b6101706102fe3660046114e2565b610dd2565b610243610311366004611795565b610e0d565b61017154600090610347837f00000000000000000000000000000000000000000000000000000000000000006118bf565b101561037d5761017154604051627289df60e61b8152610374918491600401918252602082015260400190565b60405180910390fd5b61014d8260218110610391576103916118cb565b015492915050565b60006103a3610e48565b50610171546103b3826000610e75565b6103be8160016118e1565b610171556103cf61014d6000611447565b600061016f5561016e805460ff191690556101715461040f907f0000000000000000000000000000000000000000000000000000000000000000906118f4565b6000036104c25760027f000000000000000000000000000000000000000000000000000000000000000060218110610449576104496118cb565b600402015460018054600090815261014c602052604081209290925580549161047183611916565b90915550600290507f0000000000000000000000000000000000000000000000000000000000000000602181106104aa576104aa6118cb565b6004020160008091018190556104c290608690611447565b919050565b60006104d1610e48565b816000036104f257604051630543d40760e11b815260040160405180910390fd5b61016e5460ff1661051657604051631e596e4360e11b815260040160405180910390fd5b602082111561054257604051632cd31ae960e01b81526004810183905260206024820152604401610374565b7f00000000000000000000000000000000000000000000000000000000000000005b61017154610592827f00000000000000000000000000000000000000000000000000000000000000006118bf565b10156105aa57806105a281611916565b915050610564565b808310156105d457604051627289df60e61b81526004810184905260248101829052604401610374565b8083036106105761016f5461014d84602181106105f3576105f36118cb565b0155505061016e805461ff00191661010017905561016f54919050565b61016f549150805b838110156106bd57600061062b82610fb6565b90507f0000000000000000000000000000000000000000000000000000000000000000156106765761065b611456565b8481526020810182905261066e81610944565b9450506106aa565b61067e611474565b848152602081018290526040810182905260608101829052608081018290526106a681610992565b9450505b50806106b581611916565b915050610618565b508161014d84602181106106d3576106d36118cb565b015561016e805461ff00191661010017905550919050565b60015b60015461071b827f00000000000000000000000000000000000000000000000000000000000000006118bf565b1015610733578061072b81611916565b9150506106ee565b90565b60405163248f667760e01b815260009073__$ce9c2c925f157047e54fa833ec4e61409f$__9063248f66779061077090859060040161192f565b602060405180830381865af415801561078d573d6000803e3d6000fd5b505050506040513d601f19601f820116820180604052508101906107b19190611960565b92915050565b61016e5460009060ff166107de57604051631e596e4360e11b815260040160405180910390fd5b5061016f5490565b60007f30644e72e131a029b85045b68181585d2833e84879b9709143e1f593f000000160028360405160200161081c9190611979565b60408051601f1981840301815290829052610836916119af565b602060405180830381855afa158015610853573d6000803e3d6000fd5b5050506040513d601f19601f820116820180604052508101906108769190611960565b6107b191906118f4565b600061088a611456565b8381526020810183905261089d81610944565b949350505050565b60006108af611474565b600284602181106108c2576108c26118cb565b60040201548152600284602181106108dc576108dc6118cb565b60040201600101548160016020020152600284602181106108ff576108ff6118cb565b6004020160020154816002602002015260028460218110610922576109226118cb565b6004020160030154816003602002015282816004602002015261089d81610992565b6040516314d2f97b60e11b815260009073__$6574937f64fc1d7710ec0e28b7a36713bb$__906329a5f2f6906107709085906004016119de565b610986610e48565b6109906000610fcc565b565b604051630926f44b60e31b815260009073__$20527677031d76601747626a9845039fe4$__90634937a25890610770908590600401611a06565b6040516304b98e1d60e31b815260009073__$dc01a9744591ab014bc46a3b7671cdaefb$__906325cc70e890610770908590600401611a2e565b610a0e610e48565b60018054600090815261014c6020526040812083905581549190610a3183611916565b91905055507f00000000000000000000000000000000000000000000000000000000000000006101716000828254610a6991906118e1565b9091555050600061016f555061016e805460ff19169055565b610a8a610e48565b61016e5460ff1615610aaf57604051630d36aec160e01b815260040160405180910390fd5b61017154600003610ad3576040516316a0341160e11b815260040160405180910390fd5b7f000000000000000000000000000000000000000000000000000000000000000061017154610b0291906118f4565b15610b0f57610b0f610c88565b600154600103610b3857610b236000610dd2565b61016f5561016e805460ff1916600117905550565b6000610b426106eb565b610170549091506000905b600154811015610bbe578315801590610b6557508382145b15610b705750505050565b610b87610b7f61017054610dd2565b60008561101c565b6101708054906000610b9883611916565b91905055508180610ba890611916565b9250508080610bb690611916565b915050610b4d565b506000610beb837f00000000000000000000000000000000000000000000000000000000000000006118bf565b90506001546101705403610c54576000610c247f0000000000000000000000000000000000000000000000000000000000000000610fb6565b6001549091505b82811015610c5157610c3f8260008761101c565b80610c4981611916565b915050610c2b565b50505b60a78360218110610c6757610c676118cb565b600402016000015461016f55505061016e805460ff19166001179055505b50565b610c90610e48565b7f000000000000000000000000000000000000000000000000000000000000000061017154610cbf91906118f4565b600003610d0757610cef7f0000000000000000000000000000000000000000000000000000000000000000610fb6565b600154600090815261014c6020526040902055610d78565b610d1160006111f9565b60027f000000000000000000000000000000000000000000000000000000000000000060218110610d4457610d446118cb565b6004020154600154600090815261014c6020526040812091909155610d6b90600290611492565b610d7861014d6000611447565b60006001546001610d8991906118e1565b60018190559050610dba7f000000000000000000000000000000000000000000000000000000000000000082611a56565b6101715550600061016f5561016e805460ff19169055565b60008160015411610df95760405163042a2e7160e11b815260048101839052602401610374565b50600090815261014c602052604090205490565b610e15610e48565b6001600160a01b038116610e3f57604051631e4fbdf760e01b815260006004820152602401610374565b610c8581610fcc565b6000546001600160a01b031633146109905760405163118cdaa760e01b8152336004820152602401610374565b7f0000000000000000000000000000000000000000000000000000000000000000811115610eb65760405163d1459f7960e01b815260040160405180910390fd5b600060868260218110610ecb57610ecb6118cb565b01549050610efa60017f0000000000000000000000000000000000000000000000000000000000000000611a6d565b8114610f7f578260028360218110610f1457610f146118cb565b600402018260048110610f2957610f296118cb565b01557f00000000000000000000000000000000000000000000000000000000000000008214610f7a5760868260218110610f6557610f656118cb565b018054906000610f7483611916565b91905055505b505050565b610f898284611365565b925060868260218110610f9e57610f9e6118cb565b600091015581610fad81611916565b92505050610eb6565b60006101728260218110610391576103916118cb565b600080546001600160a01b038381166001600160a01b0319831681178455604051919092169283917f8be0079c531659141344cd1fd0a4f28419497f9722a3daafe3b4186f6b6457e09190a35050565b8082111561102957505050565b600061012b836021811061103f5761103f6118cb565b0154905061106e60017f0000000000000000000000000000000000000000000000000000000000000000611a6d565b81146110cc578360a78460218110611088576110886118cb565b60040201826004811061109d5761109d6118cb565b015561012b83602181106110b3576110b36118cb565b0180549060006110c283611916565b91905055506111f3565b60007f00000000000000000000000000000000000000000000000000000000000000001561112e576110fc611456565b60a7856021811061110f5761110f6118cb565b600402015481526020810186905261112681610944565b9150506111c3565b611136611474565b60005b838160ff16101561119d5760a78660218110611157576111576118cb565b600402018160ff166004811061116f5761116f6118cb565b0154828260ff1660058110611186576111866118cb565b60200201528061119581611a80565b915050611139565b50858184600581106111b1576111b16118cb565b60200201526111bf81610992565b9150505b61012b84602181106111d7576111d76118cb565b60009101556111f1816111eb8660016118e1565b8561101c565b505b50505050565b7f0000000000000000000000000000000000000000000000000000000000000000811015610c8557600060868260218110611236576112366118cb565b01549050801561133a57600061124a611474565b600061125585610fb6565b905060005b848160ff1610156112be5760028660218110611278576112786118cb565b600402018160ff1660048110611290576112906118cb565b0154838260ff16600581106112a7576112a76118cb565b6020020152806112b681611a80565b91505061125a565b7f00000000000000000000000000000000000000000000000000000000000000008160ff1610156113165781838260ff16600581106112ff576112ff6118cb565b60200201528061130e81611a80565b9150506112be565b61131f83610992565b9350611335846113308860016118e1565b610e75565b505050505b6086826021811061134d5761134d6118cb565b60009101558161135c81611916565b925050506111f9565b600061136f611474565b60028460218110611382576113826118cb565b600402015481526002846021811061139c5761139c6118cb565b60040201600101548160016020020152600284602181106113bf576113bf6118cb565b60040201600201548160026020020152600284602181106113e2576113e26118cb565b6004020160030154816003602002015282816004602002015261140481610992565b915060028460218110611419576114196118cb565b60040201600061144091905060008155600101600081556001016000815560010160009055565b5092915050565b50610c859060218101906114a1565b60405180604001604052806002906020820280368337509192915050565b6040518060a001604052806005906020820280368337509192915050565b50610c859060848101906114ba565b5b808211156114b657600081556001016114a2565b5090565b808211156114b6576000808255600182018190556002820181905560038201556004016114ba565b6000602082840312156114f457600080fd5b5035919050565b634e487b7160e01b600052604160045260246000fd5b604051601f8201601f1916810167ffffffffffffffff8111828210171561153a5761153a6114fb565b604052919050565b60006080828403121561155457600080fd5b82601f83011261156357600080fd5b6040516080810181811067ffffffffffffffff82111715611586576115866114fb565b60405280608084018581111561159b57600080fd5b845b818110156115b557803583526020928301920161159d565b509195945050505050565b600060208083850312156115d357600080fd5b823567ffffffffffffffff808211156115eb57600080fd5b818501915085601f8301126115ff57600080fd5b813581811115611611576116116114fb565b8060051b9150611622848301611511565b818152918301840191848101908884111561163c57600080fd5b938501935b8385101561165a57843582529385019390850190611641565b98975050505050505050565b6000806040838503121561167957600080fd5b50508035926020909101359150565b60006040828403121561169a57600080fd5b82601f8301126116a957600080fd5b6040516040810181811067ffffffffffffffff821117156116cc576116cc6114fb565b806040525080604084018581111561159b57600080fd5b600060a082840312156116f557600080fd5b82601f83011261170457600080fd5b60405160a0810181811067ffffffffffffffff82111715611727576117276114fb565b6040528060a084018581111561159b57600080fd5b60006060828403121561174e57600080fd5b82601f83011261175d57600080fd5b6040516060810181811067ffffffffffffffff82111715611780576117806114fb565b60405280606084018581111561159b57600080fd5b6000602082840312156117a757600080fd5b81356001600160a01b03811681146117be57600080fd5b9392505050565b634e487b7160e01b600052601160045260246000fd5b600181815b808511156118165781600019048211156117fc576117fc6117c5565b8085161561180957918102915b93841c93908002906117e0565b509250929050565b60008261182d575060016107b1565b8161183a575060006107b1565b8160018114611850576002811461185a57611876565b60019150506107b1565b60ff84111561186b5761186b6117c5565b50506001821b6107b1565b5060208310610133831016604e8410600b8410161715611899575081810a6107b1565b6118a383836117db565b80600019048211156118b7576118b76117c5565b029392505050565b60006117be838361181e565b634e487b7160e01b600052603260045260246000fd5b808201808211156107b1576107b16117c5565b60008261191157634e487b7160e01b600052601260045260246000fd5b500690565b600060018201611928576119286117c5565b5060010190565b60808101818360005b6004811015611957578151835260209283019290910190600101611938565b50505092915050565b60006020828403121561197257600080fd5b5051919050565b815160009082906020808601845b838110156119a357815185529382019390820190600101611987565b50929695505050505050565b6000825160005b818110156119d057602081860181015185830152016119b6565b506000920191825250919050565b60408101818360005b60028110156119575781518352602092830192909101906001016119e7565b60a08101818360005b6005811015611957578151835260209283019290910190600101611a0f565b60608101818360005b6003811015611957578151835260209283019290910190600101611a37565b80820281158282048414176107b1576107b16117c5565b818103818111156107b1576107b16117c5565b600060ff821660ff8103611a9657611a966117c5565b6001019291505056fea26469706673582212201633be80dfecaa4a3170704527e59ab1d0fef8bd5c97ca127a6607036739836864736f6c63430008140033",
  "linkReferences": {
    "contracts/crypto/PoseidonT3.sol": {
      "PoseidonT3": [
        {
          "length": 20,
          "start": 4454
        }
      ]
    },
    "contracts/crypto/PoseidonT4.sol": {
      "PoseidonT4": [
        {
          "length": 20,
          "start": 4590
        }
      ]
    },
    "contracts/crypto/PoseidonT5.sol": {
      "PoseidonT5": [
        {
          "length": 20,
          "start": 3928
        }
      ]
    },
    "contracts/crypto/PoseidonT6.sol": {
      "PoseidonT6": [
        {
          "length": 20,
          "start": 4532
        }
      ]
    }
  },
  "deployedLinkReferences": {
    "contracts/crypto/PoseidonT3.sol": {
      "PoseidonT3": [
        {
          "length": 20,
          "start": 2390
        }
      ]
    },
    "contracts/crypto/PoseidonT4.sol": {
      "PoseidonT4": [
        {
          "length": 20,
          "start": 2526
        }
      ]
    },
    "contracts/crypto/PoseidonT5.sol": {
      "PoseidonT5": [
        {
          "length": 20,
          "start": 1864
        }
      ]
    },
    "contracts/crypto/PoseidonT6.sol": {
      "PoseidonT6": [
        {
          "length": 20,
          "start": 2468
        }
      ]
    }
  }
}