{
  "_format": "hh-sol-artifact-1",
  "contractName": "DomainObjs",
  "sourceName": "contracts/utilities/DomainObjs.sol",
  "abi": [
    {
      "inputs": [],
      "name": "MESSAGE_DATA_LENGTH",
      "outputs": [
        {
          "internalType": "uint8",
          "name": "",
          "type": "uint8"
        }
      ],
      "stateMutability": "view",
      "type": "function"
    }
  ],
  "bytecode": "0x6080604052348015600f57600080fd5b5060808061001e6000396000f3fe6080604052348015600f57600080fd5b506004361060285760003560e01c8063683f3dc314602d575b600080fd5b6034600a81565b60405160ff909116815260200160405180910390f3fea2646970667358221220dc98258be61847a2c423a159f7df0943c0e2683752a81ab2cb1415b564bd0f1664736f6c63430008140033",
  "linkReferences": {},
  "deployedLinkReferences": {}
}