{
  "_format": "hh-sol-artifact-1",
  "contractName": "MockVerifier",
  "sourceName": "contracts/crypto/MockVerifier.sol",
  "abi": [
    {
      "inputs": [
        {
          "internalType": "uint256[8]",
          "name": "",
          "type": "uint256[8]"
        },
        {
          "components": [
            {
              "components": [
                {
                  "internalType": "uint256",
                  "name": "x",
                  "type": "uint256"
                },
                {
                  "internalType": "uint256",
                  "name": "y",
                  "type": "uint256"
                }
              ],
              "internalType": "struct Pairing.G1Point",
              "name": "alpha1",
              "type": "tuple"
            },
            {
              "components": [
                {
                  "internalType": "uint256[2]",
                  "name": "x",
                  "type": "uint256[2]"
                },
                {
                  "internalType": "uint256[2]",
                  "name": "y",
                  "type": "uint256[2]"
                }
              ],
              "internalType": "struct Pairing.G2Point",
              "name": "beta2",
              "type": "tuple"
            },
            {
              "components": [
                {
                  "internalType": "uint256[2]",
                  "name": "x",
                  "type": "uint256[2]"
                },
                {
                  "internalType": "uint256[2]",
                  "name": "y",
                  "type": "uint256[2]"
                }
              ],
              "internalType": "struct Pairing.G2Point",
              "name": "gamma2",
              "type": "tuple"
            },
            {
              "components": [
                {
                  "internalType": "uint256[2]",
                  "name": "x",
                  "type": "uint256[2]"
                },
                {
                  "internalType": "uint256[2]",
                  "name": "y",
                  "type": "uint256[2]"
                }
              ],
              "internalType": "struct Pairing.G2Point",
              "name": "delta2",
              "type": "tuple"
            },
            {
              "components": [
                {
                  "internalType": "uint256",
                  "name": "x",
                  "type": "uint256"
                },
                {
                  "internalType": "uint256",
                  "name": "y",
                  "type": "uint256"
                }
              ],
              "internalType": "struct Pairing.G1Point[]",
              "name": "ic",
              "type": "tuple[]"
            }
          ],
          "internalType": "struct SnarkCommon.VerifyingKey",
          "name": "",
          "type": "tuple"
        },
        {
          "internalType": "uint256[]",
          "name": "",
          "type": "uint256[]"
        }
      ],
      "name": "verify",
      "outputs": [
        {
          "internalType": "bool",
          "name": "result",
          "type": "bool"
        }
      ],
      "stateMutability": "pure",
      "type": "function"
    }
  ],
  "bytecode": "0x608060405234801561001057600080fd5b50610439806100206000396000f3fe608060405234801561001057600080fd5b506004361061002b5760003560e01c8063352a4d1514610030575b600080fd5b61004761003e36600461029e565b50600192915050565b604051901515815260200160405180910390f35b634e487b7160e01b600052604160045260246000fd5b6040805190810167ffffffffffffffff811182821017156100945761009461005b565b60405290565b60405160a0810167ffffffffffffffff811182821017156100945761009461005b565b604051601f8201601f1916810167ffffffffffffffff811182821017156100e6576100e661005b565b604052919050565b600060405161010080820182811067ffffffffffffffff821117156101155761011561005b565b604052909150819083018481111561012c57600080fd5b835b8181101561014657803583526020928301920161012e565b50505092915050565b60006040828403121561016157600080fd5b610169610071565b9050813581526020820135602082015292915050565b600082601f83011261019057600080fd5b610198610071565b8060408401858111156101aa57600080fd5b845b818110156101c45780358452602093840193016101ac565b509095945050505050565b6000608082840312156101e157600080fd5b6101e9610071565b90506101f5838361017f565b8152610204836040840161017f565b602082015292915050565b600067ffffffffffffffff8211156102295761022961005b565b5060051b60200190565b600082601f83011261024457600080fd5b813560206102596102548361020f565b6100bd565b82815260059290921b8401810191818101908684111561027857600080fd5b8286015b84811015610293578035835291830191830161027c565b509695505050505050565b60008060006101408085870312156102b557600080fd5b85601f8601126102c457600080fd5b6102ce86866100ee565b935061010085013567ffffffffffffffff808211156102ec57600080fd5b908601906101e0828903121561030157600080fd5b61030961009a565b610313898461014f565b815260406103238a8286016101cf565b602081818501526103378c60c088016101cf565b838501526103478c8888016101cf565b60608501526101c086013596508487111561036157600080fd5b86860196508b601f88011261037557600080fd5b863595506103856102548761020f565b86815260069690961b870181019581810192508c8711156103a557600080fd5b968101965b868810156103cb576103bc8d8961014f565b835296830196918101916103aa565b60808501525091965050506101208701359250808311156103eb57600080fd5b50506103f986828701610233565b915050925092509256fea2646970667358221220041084e7da103b543b4353220663690a49d87cedba8987302434bc783d06f9fc64736f6c63430008140033",
  "linkReferences": {},
  "deployedLinkReferences": {}
}